:020000022000DC
:106000000000012001630200296302002B630200EB
:106010002D6302002F6302003163020000000000C4
:1060200000000000000000000000000033630200D8
:10603000356302000000000037630200396302008C
:10604000616F02003B630200C56F02003B63020008
:106050003B6302003B6302003B6302003B630200C0
:106060003B6302003B6302003B6302003B630200B0
:106070003B6302003B6302003B6302003B630200A0
:106080003B630200916302003B6302003B6302003A
:10609000316402003B630200457702003B6302006B
:1060A0003B6302003B6302003B6302003B63020070
:1060B0003B6302003B6302000000000000000000A0
:1060C0003B6302003B6302003B6302003B63020050
:1060D0003B6302003B6302003B63020000000000E0
:1060E00000000000000000000000000000000000B0
:1060F00000000000000000000000000000000000A0
:10610000000000000000000000000000000000008F
:10611000000000000000000000000000000000007F
:10612000000000000000000000000000000000006F
:10613000000000000000000000000000000000005F
:10614000000000000000000000000000000000004F
:10615000000000000000000000000000000000003F
:10616000000000000000000000000000000000002F
:10617000000000000000000000000000000000001F
:10618000000000000000000000000000000000000F
:1061900000000000000000000000000000000000FF
:1061A00000000000000000000000000000000000EF
:1061B00000000000000000000000000000000000DF
:1061C00000000000000000000000000000000000CF
:1061D00000000000000000000000000000000000BF
:1061E00000000000000000000000000000000000AF
:1061F000000000000000000000000000000000009F
:106200000348044B834202D0034B03B11847704745
:106210000C2B00200C2B0020000000000548064934
:10622000091A891001EBD171491002D0034B03B157
:10623000184770470C2B00200C2B0020000000009A
:1062400010B5064C237843B9FFF7DAFF044B13B1BE
:106250000448AFF300800123237010BD0C2B0020F5
:106260000000000054B2020008B5054B1BB10549FF
:106270000548AFF30080BDE80840FFF7CFBF00BF7F
:1062800000000000102B002054B20200154B002B20
:1062900008BF134B9D46A3F5803A00218B460F465D
:1062A0001348144A121A02F0B9FC0F4B002B00D00D
:1062B00098470E4B002B00D0984700200021040087
:1062C0000D000D48002802D00C48AFF3008002F00A
:1062D00073FC2000290001F01FF802F059FC00BFF8
:1062E0000000080000000120000000000000000085
:1062F0000C2B0020D42E0020000000000000000025
:106300000649074A074B9B1A03DD043BC858D05087
:10631000FBDC00F099FBFFF7B9FF000084B302003B
:10632000982A00200C2B0020FEE7FEE7FEE7FEE7A0
:10633000FEE7FEE7FEE7FEE7FEE7FEE700B585B015
:1063400000230390194601AA44F20100CDE901336C
:1063500000F004F805B05DF804FB00BF72B6094B0D
:106360001B68DB0700D500BEBFF34F8F0649074B04
:10637000CA6802F4E0621343CB60BFF34F8F00BFE3
:10638000FDE700BFF0ED00E000ED00E00400FA05DD
:10639000F8B52049204B0024C1F84041C1F84441E0
:1063A000C1F84841C1F84C41C1F80041C1F804416D
:1063B0001B6833B31948D1F8045501681A686D1A7F
:1063C00025F07F45AA4227460DD8197CDE69AD1A13
:1063D000144419B11F74D3E9052090471EB1334608
:1063E0001A68AA42F1D90E490E4A0B7812789A42DD
:1063F00008D00D490D4A41F823404FF48013C2F8EC
:106400000031F8BD531CDBB2022B08BF00230B7018
:10641000EFE700BF00100140482C0020442C002072
:10642000412C0020402C0020382C002000E100E00E
:106430002DE9F04FB14AB24913780978B14E99422B
:1064400085B0356800F089810133DBB2022B08BFCB
:106450000023AD491370AD4AD1F800C052F8232093
:106460000CEB020323F07F430B60002D00F0C28190
:106470002B689A42C0F0C08100273846BE4603E030
:106480000B68934200F26C81EC68C5F800E0D21A08
:106490001844E9693CB10CEB000323F07F43C5E9E4
:1064A0000134EF612F460D460029E9D13160002506
:1064B0004FF0010A964B9749DFF86C9243F00103C5
:1064C00001934FF00008002F33D0D7E901BE3C46BE
:1064D000FF698D4B90481A68ABEB020323F07F43B2
:1064E000834200F201817344236000203268E0613E
:1064F000C4E9010001202074002A00F0F380106834
:10650000984208D3DFE0DEF800C0DC4580F0E08090
:1065100072465B466046D2F81CE0A3EB000BBEF16E
:10652000000FF0D1C4F800B0C4F81CE0D461002F13
:10653000CBD191F801E0087870454AD084460CEB45
:106540004C0C8B7801EBCC0C421CD0B283429CF8F3
:106550000430087004BF00200870022BDCF80840EB
:1065600025D0032B19D0012BE6D1237C002BE3D1BE
:10657000DCF80CB0C4F804B0DCF810E0C4F808E0B3
:10658000DCF81420E26099F80020DCF81800A06123
:10659000002A9ED063609B469BE73368002BCBD0DC
:1065A00000221A74DB69002BFBD13360C1E733682A
:1065B0005BB19C4200F0BA809B4602E0944261D0FD
:1065C0009346DBF81C20002AF8D100232374704581
:1065D000B4D13668B8F1000F01D1B5422CD086B3E2
:1065E000494A4E4B1468D3F80475DFF83881366891
:1065F00098F800203D1B25F07F450335002A00F068
:10660000B680AE422CBFA4196419444A24F07F44DA
:10661000C2F84045D2F80435DB1BE41B23F07F436E
:1066200024F07F440333A34200F2BA80002389F8A8
:10663000003005B0BDE8F08FBAF1000FF6D0002EA3
:10664000CED1364D364A324C4FF400314FF48033C0
:106650000127C2F880103C43C5F848334FF43C6032
:10666000C5F808336F60A047274BAF604FF43C601C
:106670001E60A0472B4B1E70002389F8003005B028
:10668000BDE8F08F5C4553D0E069D4F800E0CBF86A
:106690001C0000285BD09C4602687244026063457F
:1066A00018BF4FF001080023087891F801E0237427
:1066B0008DE7326800230120C4E90033A360E36161
:1066C00020747AB110683460C31A1360E261FAE68C
:1066D0006044C31ACEF80030C4F800B0C4F81CE01F
:1066E000D46124E73460EEE6A2EB0B0222F07F4295
:1066F0007245DED2AEEB02032360F6E6402C0020AA
:10670000412C0020482C0020442C0020382C002054
:1067100040B00200282B0020FEFF7F000010014047
:1067200000E100E0352C0020342C0020A346224656
:10673000D3F81CC0C6F800C0BCF1000F45D0D0692A
:10674000D2F800E0CBF81C000028A5D1A7E7002371
:10675000087891F801E0237439E70027BA46A9E6E2
:1067600031600D469B1A0B604FF0010AA2E62449E6
:10677000244A4FF48030C3F844034FF0010AC3F8B1
:1067800004034FF40030C1F8800142F001020860B8
:10679000C3F800A04FF43C60904788F800A030E7B1
:1067A000184BD2F80415C2F8401543F001034FF41A
:1067B0003C609847124B4FF40032C3F8002100238D
:1067C00089F8003005B0BDE8F08FCDE902320E4BFC
:1067D000DFF83CE001209860019B89F80000CEF8CA
:1067E00000C04FF43C609847D6F800C00749DDE987
:1067F0000232A4E72F465AE629460027B2E700BF37
:1068000000E100E040B0020000100140282B002011
:10681000442C00202DE9F047264CA37882B0002BB1
:106820003CD000283AD004293CD94369002B35D00C
:10683000437C0026012B81460DF107000CBF8846E2
:10684000B04617468A468DF8076000F073F8637803
:10685000A17822789DF807005D1CEDB2A94208BF1F
:106860003546AA4222D003EB430304EBC3030121C4
:10687000114AC3F808901971D2F804256570C3E96C
:10688000032AC3E9058700F07BF80C4B4FF4801214
:106890003046C3F8002102B0BDE8F087082002B0FE
:1068A000BDE8F087072002B0BDE8F08700F068F887
:1068B0000420F0E7282B00200010014000E100E058
:1068C000F0B51A4CA37883B04BB340B3436933B3EC
:1068D0000026067405460DF107008DF8076000F0EC
:1068E00029F86378A77821789DF807005A1CD2B25E
:1068F000974208BF3246914214D003EB430304EBA6
:10690000C30302219D601971627000F039F8084BD1
:106910004FF480123046C3F8002103B0F0BD0820C8
:1069200003B0F0BD00F02CF80420F6E7282B00207F
:1069300000E100E070B4EFF3108472B60D4B9A687A
:10694000AAB90D490D4E01259D60D1F88050354002
:106950001D60C1F88060D1F884505D604FF0FF3356
:10696000C1F88430027004B962B670BC704701236C
:106970000370F8E7B82E002000E100E0FC06FFBD40
:10698000094B9A687AB170B910B4EFF3108172B6FE
:10699000064A1C6814605C685460986001B962B66D
:1069A0005DF8044B70477047B82E002000E100E00E
:1069B00001F01F024B09012100EB8300914000F020
:1069C00015B800BF01F01F0201234909934000EBF5
:1069D0008100D94300F016B84B0901F01F0150F8AF
:1069E0002300C84000F00100704700BF50E8003F9E
:1069F00043EA010240E8002C9CF0000FF6D110465B
:106A0000704700BF50E8003F03EA010240E8002C55
:106A10009CF0000FF6D11046704700BF01600B6874
:106A200043604A68934204BF00234360704700BF3D
:106A3000436843B1026891680B44436052689342D3
:106A400004BF00234360704730B4B84B1B78062B5B
:106A500020D0B74B1B68062B00F08180B54AD2F8D6
:106A6000883043F47003C2F88830BFF34F8FBFF310
:106A70006F8F4FF01023D3F80022002AC0F28681D6
:106A8000D3F80432002BC0F28181AB4BAB4A1A60C1
:106A900030BC7047AA4B1B681D07DAD1A94B1B6895
:106AA00003F0F002302A00F09B8003F0E003402B5B
:106AB00000F09680A34B1B6803F0F003302B00F02E
:106AC000A080A04B1B6803F0F002302A77D003F0BF
:106AD000E003402B73D09B4B1B6803F0F003302B7B
:106AE00000F01481974B1B6803F0F002302A52D05B
:106AF00003F0E003402B4ED0924B1B6803F0F003F1
:106B0000302B00F0F5808F4B1B6803F0F003302B27
:106B100000F0D7808B4B1B6803F0F003502B7ED026
:106B2000884B1B6803F0F002302A23D003F0E00307
:106B3000402B1FD0834B1B6803F0F002302A03D098
:106B400003F0E003402B84D14FF08043D3F80024BE
:106B5000D20744BF6FF00102C3F8002479E77A4BF3
:106B60001B68062B7FF47AAF784A136843F480637E
:106B7000136073E7764B6D4A1B681278754903F012
:106B80004F03062A0B607FF464AF6D4B1B68190737
:106B90007FF45FAFCEE7654A11784FF08043002263
:106BA0000629C3F80C21C3F81021C3F838257FF457
:106BB00050AF634B1B681B077FF44BAF9CE7664BE2
:106BC0005A4A1B6812786549C3F34233062A0B60A0
:106BD0007FF43FAF5A4B1B6819077FF43AAF7AE74F
:106BE0005F4B524A1B6812785E49C3F30423062A9E
:106BF0000B607FF42EAF524B1B681C077FF429AF4C
:106C000058E74A4B584A1B7858491160062B7FF4C5
:106C100020AF4B4B1B6818077FF41BAF51E74FF0B9
:106C20008052534BD2F80414C3F82015D2F808143C
:106C3000C3F82415D2F80C14C3F82815D2F8101490
:106C4000C3F82C15D2F81414C3F83015D2F8181460
:106C5000C3F83415D2F81C14C3F84015D2F8201428
:106C6000C3F84415D2F82414C3F84815D2F82814F0
:106C7000C3F84C15D2F82C14C3F85015D2F83014C0
:106C8000C3F85415D2F83414C3F86015D2F8381488
:106C9000C3F86415D2F83C14C3F86815D2F8401450
:106CA0002248C3F86C15D2F844140278C3F8701562
:106CB000062A7FF4CEAE224B1B6818077FF4C9AEBC
:106CC0002EE71A4B2B4C1B782B492C482C4A0525B8
:106CD000256001250D6000243F21062B0460116012
:106CE0007FF4B7AE164B1B681C077FF4B2AE11E7FA
:106CF0000E4B244A1B780321062B11607FF4A9AEAA
:106D00000F4B1B681D077FF4A4AEFCE61E4A074923
:106D1000D368097823F080730629D3607FF499AE95
:106D2000074B1B681A077FF494AEDBE6E00F00F018
:106D30003001001000ED00E0982A00200090D00300
:106D4000E40F00F0E80F00F0340100103C170040A1
:106D500058020010E40E0040440200103C050040C0
:106D6000240300104035014074C007400DF0ADBA57
:106D700000C00040105600408856004018560040A1
:106D800014560040A0050040F0ED00E0184A012331
:106D9000C2F80435D2F80034002BFBD04FF010239A
:106DA0001521134AC3F80012D2F80034002BFBD08F
:106DB0004FF0102315210E4AC3F80412D2F8003404
:106DC000002BFBD000230A49C2F80435D1F8003467
:106DD000002BFBD0BFF34F8F0649074BCA6802F464
:106DE000E0621343CB60BFF34F8F00BFFDE700BFEE
:106DF00000E0014000ED00E00400FA0510B568B9BC
:106E00000E4CA368012262703BB1D3E9002300203D
:106E1000A2609847A368002BF7D110BD0128FCD1D0
:106E2000064C2369A070002BF7D0D3E90023012082
:106E3000226198472369002BF7D110BD4C2C00200C
:106E400070B910B5074CA368012262703BB1D3E959
:106E500000230020A2609847A368002BF7D110BD43
:106E6000704700BF4C2C002030B5012883B01DD0E6
:106E7000B0B1032812D1224C00F054F800230DF1D8
:106E800007008DF80730FFF755FDE368013BE3602D
:106E9000E5686DB39DF80700FFF772FD03B030BDE4
:106EA000184B0122C3F8802003B030BD144C0023DE
:106EB0000DF107008DF80730FFF73CFD237853B143
:106EC000E3689DF8070001330122E360A270FFF739
:106ED00057FD03B030BD0C486360A3602361E360DD
:106EE00000F014F800F028FC30B101232370E7E72C
:106EF00000F02AF8A570CDE700F014F8F5E700BF20
:106F00004C2C002000E100E0FD6D0200044A1379E2
:106F100023B9012110609180184670478520704781
:106F2000602C0020074B1A68D20704D4C02101222C
:106F300083F800131A604FF080430122C3F818252C
:106F4000704700BF00E100E0044B01221A604FF0DF
:106F50008042D2F81834DB03FBD470470C000040A9
:106F600010B5154B1A6882B062B10021134A19603E
:106F70001B68507900934FF080410123009CC1F8B9
:106F80000833A8B10E4B1A6882B100221A601B6840
:106F900001934FF080420221084B0198C2F8081378
:106FA0001B68012002B0BDE81040184702B010BDB8
:106FB000116853718847E5E700010040602C00200C
:106FC0000401004030B56D4AD2F8043399058BB006
:106FD00066D5D2F82431002B62D00023C2F82431C8
:106FE000D2F8243103934FF40171654B0398C2F832
:106FF000081393F8291009B9012151605F49022251
:107000008DF81820D1F88024C1F880249869D968B7
:1070100009920022CDE90710C3E90622D3E9001442
:1070200006A8A047554AD2F81C31C3B1544B186A80
:107030005969884269D293F8280000F0FF040028BB
:1070400063D1C2F81C41D2F81C11029102999C68CC
:10705000186A196A205C01311962C2F81C05474A96
:10706000D2F84431D3B10021454BC2F84411D2F8D3
:10707000440193F829100090009800295AD19A6988
:1070800062B10022586AD9689A610122CDE90710DD
:107090008DF8182006A8D3E9001290470BB030BD38
:1070A000364AD2F804335B07BCD5D2F80831002B3E
:1070B000B8D0334B996900293FD00021C2F808119C
:1070C000D2F8081104910499D868596AD2F81825A1
:1070D00042545A6A996901325A625A6A8A42A1D163
:1070E000DA691968002A31D0D8685D6A1C699A612A
:1070F000079000220120DC60DA615A628DF81800E6
:1071000008955B6806A898478CE71C4A0020C2F8DF
:107110001C01D2F81C210192019A00299FD09A6883
:107120008DF8180008915861079206A8D3E900125B
:10713000904794E701211160A1E7C2F80811D2F845
:10714000080105900598D2F81825C6E793F829207C
:1071500012B90A4A01205060084A4FF40170C2F87F
:107160000803586ADA6808900024012007928DF815
:1071700018005A689C6106A8904753E70020004019
:10718000682C0020032807D8012A07D001291DD028
:107190004BB28BB1022908D007207047012912D0C9
:1071A00001294FF00002F3D110E00B4B00EB40003F
:1071B000034400205A707047074900EB4000014427
:1071C00018468A70704700F10E02D2B200EB4003FD
:1071D00001490020CA547047942C002010B5038840
:1071E000102B07D0112B04D1254B186801381860DB
:1071F00030B110BD224C216811B30131216010BDA6
:1072000001220221FFF7BEFF40B1072806D01D4B27
:107210001B68002BEDD0BDE8104018470722022163
:107220000120FFF7AFFF08B10728F0D10021084681
:107230000A22FFF7A7FF0028DBD00728E7D1D8E70D
:1072400001220846FFF79EFF38B1072805D00D4BF5
:107250001B6803B198472168CFE70722022101206C
:10726000FFF790FF08B10728F1D104220221002086
:10727000FFF788FF0028EED00728E8D1EBE700BF32
:10728000A42C0020A02C0020BFF34F8F0549064BF3
:10729000CA6802F4E0621343CB60BFF34F8F00BFB4
:1072A000FDE700BF00ED00E00400FA0508B54FF46B
:1072B000E131164800F0E4FA1549144800F066FB85
:1072C0001449124800F062FB0121172000F0D4FBA2
:1072D0000121172000F0DCFB0121182000F0CCFB7D
:1072E0000121182000F0D4FB4FF0804201231360ED
:1072F000D2F80031002BFBD0012393604FF0804285
:10730000D2F80431002BFBD008BD00BF742D002043
:1073100048B0020064B002002DE9F0438DB0FFF7E1
:10732000C5FF00F089FA3648364CDFF8F090804609
:1073300000F018FD344800F077FA0021172000F023
:10734000A7FB3CE0322848D033284FD0404600F01D
:10735000E7FE0746404600F00BFF0646404600F0B9
:107360002FFFB7F90410B7F90230B7F900200091E8
:107370000546494602A801F059FC02A9204600F042
:10738000E5FAB6F90410B6F90230B6F9002000911A
:1073900002A81E4901F04AFC02A9204600F0D6FAD4
:1073A000B5F90410B5F90230B5F90020009102A832
:1073B000164901F03BFC02A9204600F0E7FA2046FE
:1073C00000F01EFB3128BDD111490E4800F0DEFA55
:1073D0000B4800F02BFFFFF757FF0E49094800F05C
:1073E000D5FA074801F0C4F8FFF74EFF0A490548EF
:1073F00000F0CCFA024801F071FAFFF745FF00BF38
:10740000A82C0020742D0020702D0020F8B0020060
:107410007CB00200A4B00200C8B00200ECB00200D0
:107420002DE9F0410388112B82B0044675D00BD9A9
:10743000122B49D0502B04D1714EC288F3899A4245
:107440007ED002B0BDE8F081102BFAD1C37B012BB6
:10745000F7D16C4D29884FF6FF72914240F0B2800F
:10746000694F8288664E2A8003CFC5F80A00C5F8A6
:107470000E10618A6F89F0894FF0000C8F4285F8F9
:1074800008C000F29280AF898F42C0F08E80E989F7
:10749000A78A40F2F314A14294BF4C1A0C1BBC42C1
:1074A00000F2838001F2F311B9427ED36B7200289F
:1074B000C7D17369002BC4D00121ADF806208DF827
:1074C000041001A89847BCE74E4D82882B88934250
:1074D000B7D141896889884258D8A889884255D34C
:1074E000E989A48940F2F310814294BF481A081A2E
:1074F000A0424BD801F2F311A14247D3404A52694E
:107500004FF480712981002A9BD00121ADF806300B
:107510008DF8041001A8904793E73A4D82882B8894
:107520009A428ED16868FFF7CBF918B1344B9B694A
:1075300003B198474FF6FF732B8002B0BDE8F0818E
:10754000038A022B7FF47DAF2E4DB0F804802F8884
:1075500047457FF476AF123000F0EAF8002839D0C2
:107560006B7A002B3DD1D6E901132C7A68683A4634
:10757000002C18BF1946FFF74DF900283FF461AF02
:10758000B369002B3FF45DAF98475AE71C4E2C7A45
:107590006868D6E90113002C18BF194600236B72E6
:1075A000FFF738F90028EBD14BE700236B72002876
:1075B0007FF447AF68687168FFF72CF900283FF443
:1075C00040AFDDE70E4B9B69002B3FF43AAF042040
:1075D000984736E76868FFF773F900283FF431AF42
:1075E000CEE7736900222A72002B3FF42AAF0122F2
:1075F000ADF806808DF8042001A8984721E700BF68
:10760000BC2C0020D82C0020EC2C00202DE9F047C9
:1076100003888788112B98B007D01A2B064650D0C4
:10762000102B09D018B0BDE8F08739463948FFF76C
:10763000C9F918B0BDE8F087374A9368DB43009377
:1076400051686846FFF7DEF9009B0193019B83B305
:1076500000242546294601A8FFF7BEF928B118AB3A
:1076600003EB4403013423F8285C0135142DF1D1D8
:107670000D940DF1340CBCE80F0002AD0FC5BCE851
:107680000F000FC59CE8070085E807008CB10DF1DD
:107690000A08DFF898A008EB440438F8029F1F4D51
:1076A000284649460435FFF78DF9AA45F8D1A0458B
:1076B000F3D1132F14D90420FEF740FE18B0BDE813
:1076C000F087047A16482409012C394618D9FFF7A7
:1076D0006FF9022C3946134816D0FFF769F9A1E774
:1076E00039460C48FFF764F939460C48FFF760F952
:1076F000F37B012B96D039460B48FFF759F991E7F8
:10770000FFF760F907483946FFF75CF918B0BDE8A4
:10771000F08700BFFC2C0020F42C0020F82C002067
:10772000042D0020082D0020002D00206C2D0020AD
:10773000007800F001007047014B1878704700BFD7
:107740006C2D002000B583B068460849FFF766F944
:10775000019B43B1D3E9002090476846FFF768F9E1
:10776000019B002BF6D103B05DF804FB04B10200CD
:1077700061DF704730B5134DADF5017D4FF4FA74FC
:107780000DF1020103A8ADF80240FFF7F1FF88B93F
:10779000294601A8FFF742F9029B002BF0D0D3E95C
:1077A000002103A8904701A8FFF742F9029B002B94
:1077B000F5D1E5E7052801D0FEF7C0FD0DF5017D07
:1077C00030BD00BF10B10200024B1B780BB1FFF7B8
:1077D000D1BF70476D2D00204BDF704710B5114CA5
:1077E00084B001A8FFF7F8FFA8B9214602A8FFF767
:1077F00015F9039B002BF4D0D3E9002101989047A1
:1078000002A8FFF715F9039B002BF5D101A8FFF79C
:10781000E3FF0028E9D0052801D0FEF78FFD04B072
:1078200010BD00BF1CB102000149024800F0AEB813
:1078300028B10200742D00204FF080420C49012332
:1078400030B4C2F818350B60D2F81434DB07FBD51E
:10785000084B094D09490122202400202A60C3F861
:107860000845C3F808030A601A6030BC704700BFBF
:10787000080000400040024004400240084002402E
:10788000284B08200622B1F5614F10B4C3F8140547
:10789000C3F80C253DD021D9B1F5613F3DD016D9B3
:1078A000B1F5E12F25D0B1F5612F20D11E4AC3F8E3
:1078B00024251C4B1D49002401220420C3F86C45DB
:1078C000C3F800051A600A605DF8044B7047B1F513
:1078D000E13F0CD1164AC3F82425EAE7B1F5964FEB
:1078E0000BD0B1F5164F0CD0B1F5165F0DD00D4B86
:1078F000F0E7104AC3F82425DBE70F4AC3F8242534
:10790000D7E70E4AC3F82425D3E70D4AC3F8242548
:10791000CFE70C4AC3F82425CBE70B4AC3F824254C
:10792000C7E700BF0020004000D0BE0E0820004086
:1079300000E0D70100705F0700A04E0000509D00DE
:107940000050270000F0EB0000B0AF0370B5084610
:1079500082B00D4601F08AF980B288B10024094E48
:10796000094A21462B5DC6F81C351368002BFCD054
:107970001160013413680193E4B28442019BF1DB8E
:1079800002B070BD002000401C21004070B50846C8
:1079900084B00D4601F06AF980B288B10024164E19
:1079A000164A21462B5DC6F81C351368002BFCD007
:1079B0001160013413680193E4B28442019BF1DB4E
:1079C0000D4B0E4A0A21C3F81C151368002BFCD07E
:1079D000002313601268084B02920D21074A029897
:1079E000C3F81C151368002BFCD000231360136828
:1079F0000393039B04B070BD002000401C21004095
:107A0000074B186858B107490022D1F818051A60C9
:107A100082B01B680193019BC0B202B070477047EF
:107A2000082100400020004050B138B5054D044603
:107A300045F001054FF47A40A847013CFAD138BD22
:107A4000704700BF40B1020008B5094BD3F80405E8
:107A500007EE900AF8EE677A17EE900A01F0EEFF53
:107A60000022044B02F06CF902F018FB08BD00BFC5
:107A7000004002400040EF3F00F5E0704FF0A043AF
:107A800019B1032243F82020704743F820107047B3
:107A9000012303FA00F04FF0A04311B1C3F8080529
:107AA0007047C3F80C05704730B40D4B0D480022E9
:107AB0000C21C3F800250B25C3F808154FF0CD6441
:107AC0000521C3F80C55C3F82445C3F80803C3F8CF
:107AD0000015C3F80821C3F81C2130BC704700BF53
:107AE00000300040864204001D4BF0B40024012702
:107AF000C3F80841C3F83841C3F888151F601AB3AA
:107B0000451E561E2046D3F838110029FBD0A64248
:107B1000C3F838010CBF5F61DF61D3F80811002999
:107B2000FBD0C3F80801D3F8181505F8011FA642C9
:107B30000DDDD3F848110029FBD0C3F848011F62BE
:107B40000134E1B28A42DED80020F0BC7047D3F89D
:107B500004110029F4D1D3F804110029F7D0EFE77C
:107B60000030004038B50C4B05220125C3F8002534
:107B70000446C3F888152A469D60002100F58070F0
:107B800001F04CF820464FF48072002101F046F8D5
:107B9000002384F8003138BD0030004089B10D4B1E
:107BA000D3F804219AB10B4AD2F80431002BFBD050
:107BB0000023C2F80431074B00220120C3F800253E
:107BC0007047044B00220846C3F800257047012285
:107BD0005A61E8E700300040054AC2F81C15D2F8A7
:107BE0001C31002BFBD00020C2F81C01704700BFE5
:107BF0000030004090F800310246C05C013382F84A
:107C0000003170472DE9F04106465148514D074675
:107C10000C21FFF7A7FF03213846FFF7DDFF0722FE
:107C20000C213846FFF760FF2C4605F10608384660
:107C3000FFF7E0FF20803846FFF7DCFF238840B2E3
:107C400043EA002324F8023B4445F0D10121404897
:107C5000FFF7A4FFB6F900309FED3F4A9FED3F5A72
:107C6000DFED3F5A06EE103AB8EEC66AB5F90030BD
:107C700036EE446A06EE903AF6EE004AF7EE007AE7
:107C800026EE246AB8EEE63AF0EE676AE6EE056A9A
:107C9000B5F9023007EE103A66EE836AB5F90430A2
:107CA000FDEEE66AF8EEC73A07EE103A16EE903AA5
:107CB0001BB206EE903AF8EEE66AB8EEC76A66EED8
:107CC000A56AB0EE677AFDEEE66A012216EE903AFA
:107CD0002B80B6F9023006EE903AF8EEE66A76EEC0
:107CE000C46A66EEA46AA6EE857A27EE237ABDEE14
:107CF000C77A17EE103A1BB207EE103AB8EEC77A01
:107D000027EE257ABDEEC77A17EE103A6B80B6F9EA
:107D10000430EA8007EE103AB8EEC77A37EE447ABC
:107D200027EE247AE7EE057A67EE867AFDEEE77AAB
:107D300017EE903A1BB207EE903AF8EEE77A67EE4C
:107D4000A57AFDEEE77A17EE903AAB80BDE8F081B8
:107D5000782D0020A42E0020000000430000003CED
:107D60009A99193E2DE9F04F81468DB0A448FFF74E
:107D70009BFEA449A448FFF709FE6821A048FFF72D
:107D8000F1FE6B219E48FFF727FF80219C48FFF7FB
:107D900023FF01219A48FFF701FF6420FFF744FE0B
:107DA00068219748FFF7DEFE6B219548FFF714FF27
:107DB00000219348FFF710FF01219148FFF7EEFEE5
:107DC00068218F48FFF7CEFE37218D48FFF704FF6B
:107DD00002218B48FFF700FF01218948FFF7DEFEF3
:107DE0000C218748FFF7BEFE0B218548FFF7F4FE04
:107DF00001218348FFF7F0FE01218148FFF7CEFE05
:107E00000A20FFF711FE0C217D48FFF7ABFE0B2186
:107E10007B48FFF7E1FE00217948FFF7DDFE0121F5
:107E20007748FFF7BBFE68217548FFF79BFE1A21D4
:107E30007348FFF7D1FE05217148FFF7CDFE012100
:107E40006F48FFF7ABFE68216D48FFF78BFE1B21E3
:107E50006B48FFF7C1FE10216948FFF7BDFE012105
:107E60006748FFF79BFE68216548FFF77BFE1C21F2
:107E70006348FFF7B1FE00216148FFF7ADFE012125
:107E80005F48FFF78BFE68215D48FFF76BFE1D2101
:107E90005B48FFF7A1FE05215948FFF79DFE012130
:107EA0005748FFF77BFE0C215548FFF75BFE0A2180
:107EB0005348FFF791FE00215148FFF78DFE012145
:107EC0004F48FFF76BFE6420FFF7AEFD0C214C48D6
:107ED000FFF748FE0A214A48FFF77EFE0F21484877
:107EE000FFF77AFE01214648FFF758FE6420FFF7AE
:107EF0009BFD0C214248FFF735FE10214048FFF75B
:107F00006BFE03220C213E48FFF7EEFD3C48FFF7D5
:107F100071FEA9F800003A48FFF76CFEA9F80200CC
:107F20003748FFF767FE0121A9F804003448FFF73E
:107F300035FE0C213248FFF715FE0A213048FFF7C5
:107F40004BFE00212E48FFF747FE01212C48FFF78A
:107F500025FE6420FFF768FD0C212948FFF702FE8B
:107F60000A212748FFF738FE16212548FFF734FE7F
:107F700001212348FFF712FE6420FFF755FD682119
:107F80001F48FFF7EFFD75211D48FFF725FE012271
:107F900068211B48FFF7A8FD1948FFF72BFE0121B8
:107FA00004461748FFF7FAFD712C0CBF1749184912
:107FB0001548FFF7EBFC0C211148FFF7D3FD00211A
:107FC0000F48FFF709FE01220C210D48FFF78CFD39
:107FD0000B48FFF70FFE012104460948FFF7DEFDBD
:107FE000482C14BF0B490C490748054CFFF7CEFC41
:107FF00009F1060A4FF07708132700250EE000BFAD
:10800000782D002048B10200742D00205CB10200E0
:108010006CB1020088B10200A4B10200AE0006F10A
:1080200010266821D6F880B02046FFF79BFD394620
:108030002046FFF7D1FDCBF307212046FFF7CCFD0B
:1080400001212046FFF7AAFD68212046D6F880606E
:10805000FFF788FD791CC9B22046FFF7BDFDF1B2DC
:10806000AE0006F110262046FFF7B6FD012120469E
:10807000FFF794FDD6F88CB068212046FFF772FD1B
:1080800041462046FFF7A8FDCBF307212046FFF726
:10809000A3FD0C3601212046FFF780FD6821204614
:1080A000D6F88060FFF75EFD08F10101C9B22046F5
:1080B000FFF792FDF1B22046FFF78EFD0121204629
:1080C000FFF76CFD4FF0102305F1260105F12902A1
:1080D00053F821102AF8021B0135023708F1030872
:1080E00053F82230AAF80430032DFFB25FFA88F863
:1080F00094D1B9F90A300093B9F90830B9F90620DA
:10810000054902A800F092FD02A90448FFF73EFCD1
:108110000DB0BDE8F08F00BFB4B10200742D002097
:108120001148F8B568210646FFF71CFD3B21304693
:10813000FFF752FD0622682130460C4DFFF7D4FCB4
:10814000AF1D3046FFF756FD04463046FFF752FD9F
:1081500040EA042025F8020BBD42F2D10121024879
:10816000FFF71CFD0148F8BD782D0020842E00206B
:108170001148F8B568210646FFF7F4FC4321304664
:10818000FFF72AFD0622682130460C4DFFF7ACFCB4
:10819000AF1D3046FFF72EFD04463046FFF72AFD9F
:1081A00040EA042025F8020BBD42F2D10121024829
:1081B000FFF7F4FC0148F8BD782D00207C2E00204C
:1081C000F8B50C2104461648FFF7CCFC02211448F0
:1081D000FFF702FD01220C211148FFF785FC104832
:1081E000FFF708FD012105460D48FFF7D7FCEB0717
:1081F00012D40C4BB4F806C01888278966895988B0
:108200009A88DD88A0EB0C040748C91B931B0480E7
:1082100041808380C580F8BD2046FFF7F3FCE8E786
:10822000782D0020A42E00209C2E00202DE9F04F58
:10823000C64DC74C9BB0A5F1060846460DF1140A81
:10824000002368212046CAE90033CAF80830CDE986
:1082500008330A93CDE90C33FFF784FC77212046DD
:10826000FFF7BAFC092268212046FFF73DFCB94B15
:1082700002931F462046FFF7BDFC81462046FFF7CC
:10828000B9FC40EA092027F8020B2046FFF7B2FCB0
:10829000B14BBB42EED101212046FFF77FFC40F6F7
:1082A000B83768212046FFF75DFC3B212046FFF7E9
:1082B00093FC062268212046FFF716FCDFF8ACB2DB
:1082C0002046FFF797FC81462046FFF793FC40EAE3
:1082D00009202BF8020B5D45F2D101212046FFF762
:1082E0005DFC05980699079AB6F90030B6F902E0E8
:1082F000B6F904C0034471446244013FCDE905313D
:108300000792CED1934A9549B2F9002081FB03012F
:10831000DB17C3EB6123D31A0B930BAB03931A4602
:10832000012377279B4652F8049B0192682120463F
:10833000FFF718FC39462046FFF74EFCC9F307212A
:108340002046FFF749FC01212046FFF727FC682162
:108350002046FFF707FC791CC9B22046FFF73CFC1A
:108360005FFA89F12046FFF737FC01212046FFF72D
:1083700015FCBBF1030F019A19D0029B5AF82B1080
:1083800033F9020F0293754B83FB013CC917C1EB14
:108390006C21411ABBF1020F116007F1030704BF02
:1083A00001F500610D910BF1010BFFB2BBE70C224F
:1083B0000021504600F032FC0C22002108A800F0F9
:1083C0002DFC40F6B83768212046FFF7CBFB3B2158
:1083D0002046FFF701FC062268212046FFF784FBB8
:1083E000C3462046FFF706FC81462046FFF702FC05
:1083F00040EA09202BF8020BAB45F2D101212046BF
:10840000FFF7CCFB0598069B079AB6F90010B6F962
:1084100002C0B6F904E0014463447244013FCDE96F
:1084200005130792CFD14D4880FB03C0DB17C3EB88
:10843000A0134A4880FB01EC80FB02E0C917D21769
:10844000C1EBAC11C2EBA01203FB03F0A2F580421A
:1084500001FB010002FB0200CDE908130A9201F0C2
:10846000DBFA41EC100B01F059F851EC100B01F064
:10847000EDFD32283FF7E4AE39493A48FFF786FA76
:10848000CDE91277384A11974FF01023C2F80475DE
:10849000D3F880100E91D3F884100F91D3F8881080
:1084A0001091D3F898101491D3F89C101591D3F82B
:1084B000A0101691D3F8A4101791D3F8A810189112
:1084C000D3F8AC30199302210123C2F804151146E8
:1084D000C2F81435D1F80034002BFBD0224B039E98
:1084E0000EA801254FF01021C3F8045507F1200212
:1084F00050F8044B41F82240D3F80024002AFBD066
:1085000007F1230256F8044B41F82240D3F8002427
:10851000002AFBD007F12602446941F82240D3F833
:108520000024002AFBD007F12902046A41F8224006
:10853000D3F80024002AFBD00137032FD4D1012225
:10854000C3F804251BB0BDE8F08F00BF8A2E0020C1
:10855000782D0020942E00209A2E0020F119760507
:10856000E8B10200742D002000E00140842E0020BC
:108570002DE9F04FD04C99B0132568212046FFF724
:10858000F1FA29462046FFF727FB00212046FFF796
:1085900023FB01212046FFF701FB68212046FFF75E
:1085A000E1FA691CC9B22046FFF716FB023500212B
:1085B0002046FFF711FBEDB201212046FFF7EEFA4E
:1085C000192DDAD1BD4DBC4CAF1F3E4600236821AA
:1085D0002046CDE90333CDE90533CDE90733CDE9B5
:1085E00009330B93FFF7BEFA13212046FFF7F4FA85
:1085F000062268212046DFF8DC92FFF775FACA46AA
:108600002046FFF7F7FA80462046FFF7F3FA40EAE4
:1086100008202AF8020BAA4B5345F1D1012120462C
:10862000FFF7BCFA40F6B83A68212046FFF79AFAFD
:1086300043212046FFF7D0FA062268212046FFF7A3
:1086400053FADFF894B22046FFF7D4FA804620466A
:10865000FFF7D0FA40EA08202BF8020BAB45F2D125
:1086600001212046FFF79AFAB6F90230049A0399DD
:10867000B6F900C0B6F904001A44059B61440344EE
:10868000BAF1010A0391CDE90423CDD109AB03AAC4
:1086900001939B464FF014089246CDF80090009944
:1086A0005AF8043B31F9022B0091864981FB030102
:1086B000DB17C3EBA113A2EB0309682120464BF89B
:1086C000049BFFF74FFA08F1FF31C9B22046FFF7CC
:1086D00083FAC9F307212046FFF77EFA01212046DD
:1086E000FFF75CFA68212046FFF73CFA4146204636
:1086F000FFF772FA08F102085FFA89F12046FFF7E6
:108700006BFA5FFA88F801212046FFF747FAB8F1C3
:108710001A0FC4D10C2200210DEB020000F07EFAEA
:108720000C22002106A800F079FA40F6B83868213A
:108730002046FFF717FA43212046FFF74DFA06229D
:1087400068212046FFF7D0F9BA462046FFF752FAD3
:1087500081462046FFF74EFA40EA09202AF8020B2C
:10876000AA45F2D101212046FFF718FA0398049A8E
:10877000059BB6F90010B6F902C0B6F904E0014451
:1087800062447344B8F10108CDE903120593CED1D8
:108790004C4880FB02C0D217C2EBA01E49480246DB
:1087A00080FB01C0C91782FB032CC1EBA011DB17B2
:1087B0000EFB0EF0C3EBAC1301FB010003FB030047
:1087C000CDE9061E089301F027F941EC100B00F0EB
:1087D000A5FE51EC100B01F039FC0A283FF7F6AE6C
:1087E00039493A48FFF7D2F8CDE90D88384ACDF833
:1087F00030804FF01023C2F80485D3F88C100F910D
:10880000D3F890101091D3F894101191D3F89810D8
:108810001291D3F89C101391D3F8A0101491D3F8AF
:10882000A4101591D3F8A8101691D3F8AC30179373
:1088300002210123C2F804151146C2F81435D1F8FB
:108840000034002BFBD0224B019E0FA801254FF0D6
:108850001021C3F8045508F1200256F8044B41F8E2
:108860002240D3F80024002AFBD008F1230250F85C
:10887000044B41F82240D3F80024002AFBD008F131
:108880002602846841F82240D3F80024002AFBD055
:1088900008F12902446941F82240D3F80024002A53
:1088A000FBD008F10108B8F1030FD2D10122C3F8BF
:1088B000042519B0BDE8F08F782D0020822E00200D
:1088C000922E0020F1197605C0B10200742D00200F
:1088D00000E001408C2E00207C2E00202DE9F04F7E
:1088E0009DB08246FFF7B0F80027A34EA34C03903B
:1088F000B946B8464FF4FA650DE0B6F90000B6F98E
:108900000210B6F90430804489441F4495B2CDE981
:1089100009890B9765B30C212046FFF723F9022143
:108920002046FFF759F901220C212046FFF7DCF819
:108930002046FFF75FF9012183462046FFF72EF915
:108940001BF0010F05F1FF32D7D05046FFF75AF95F
:10895000B6F90010B6F90220B6F90430013D88449A
:1089600091441F44ADB2CDE909890B97002DD2D1B6
:10897000DDE90A378248099D80FB032180FB05243D
:10898000DB1780FB0720ED17FF17039AC5EBE415F3
:10899000C3EBE113C7EBE0172DB21BB23FB202F5F8
:1089A0009C5B764CADF814500BF1080BADF81C50E5
:1089B000A846ADF81630ADF81E30ADF81870ADF819
:1089C00020701EE0984502DBADF81C309846B6F9E1
:1089D0000230BDF916209A4239DDBDF91E209A42B7
:1089E00001DBADF81E30B6F90430BB4235DABDF913
:1089F00020209A4201DBADF82030FFF725F88345AF
:108A000032D30C212046FFF7ADF802212046FFF7B4
:108A1000E3F801220C212046FFF766F82046FFF715
:108A2000E9F8012181462046FFF7B8F819F0010F57
:108A300040F09E80B6F900309D42C3DCADF81430A2
:108A40001D46BDF91620B6F902309A42C5DCADF8D4
:108A50001630B6F90430BB42C9DBADF818301F46FA
:108A6000FEF7F2FF8345CCD2BDF92000BDF91420FA
:108A7000BDF91C50BDF91E30BDF91640BDF91810E6
:108A80002A440144234402EBD27203EBD37301EB7B
:108A9000D17152105B104910AAF80620AAF80830CC
:108AA000AAF80A1012A80091364900F0BFF812A9DE
:108AB0003548FEF76BFF35494FF010230022C1F80F
:108AC0000425D3F880200C92D3F884200D92D3F89B
:108AD00088200E92D3F88C200F92D3F89020109219
:108AE000D3F89430119302220123C1F804250A46D9
:108AF000C1F81435D2F80034002BFBD0234B0AF117
:108B0000060A0CAC002101254FF01020C3F80455D3
:108B100001F1200254F8046B40F82260D3F80024DD
:108B2000002AFBD001F12302A66840F82260D3F8A6
:108B30000024002AFBD001F126023AF9026B40F82A
:108B40002260D3F80024002AFBD001F12902BAF9EF
:108B5000046040F82260D3F80024002AFBD00131E1
:108B60000329D3D10122C3F804251DB0BDE8F08F3D
:108B70005046FFF747F85DE7A42E0020782D00202F
:108B8000D34D6210B4B10200742D002000E001400A
:108B900008B5074B044613B10021AFF30080054B25
:108BA0001868836A03B19847204600F0B5FC00BFFF
:108BB0000000000014B2020070B50D4D0D4C641B96
:108BC000A4100026A64209D10B4D0C4C02F026FA47
:108BD000641BA4100026A64205D170BD55F8043BC5
:108BE00098470136EEE755F8043B98470136F2E71F
:108BF000042B0020042B0020042B0020082B002035
:108C00000A44914200F1FF3300D1704710B511F8CA
:108C1000014B03F8014F9142F9D110BD02440346C4
:108C2000934200D1704703F8011BF9E70EB400B579
:108C30009CB01DAB029006906FF00041094807916F
:108C40000491094953F8042B05910068019302A986
:108C500000F070F8029B00221A701CB05DF804EB63
:108C600003B070479C2A00200802FFFF034613F858
:108C7000012B002AFBD1181A013870472DE9F04763
:108C80008E689E4282460C469146984638D8B1F886
:108C90000CC01CF4906F31D062692568096902EB41
:108CA00042026F1A02EBD272013355103B449D42CF
:108CB00038BF1D461CF4806F30D0294600F078FB89
:108CC000064650B90C23CAF80030A38943F040038C
:108CD000A3814FF0FF30BDE8F0873A462169FFF7E6
:108CE0008FFFA38923F4906343F08003A38126615F
:108CF00065613E44ED1B2660A5604646464500D9A9
:108D0000464632464946206800F0EAFAA3689B1BB3
:108D1000A36023681E4426600020DCE72A4600F09A
:108D2000A1FB06460028E2D12169504600F0F2FA84
:108D3000C8E700002DE9F04F1E468B891B069DB049
:108D400007460D4614460ED50B6963B9402100F065
:108D50002FFB2860286120B90C233B604FF0FF30C7
:108D6000C9E040236B610023099320238DF829304B
:108D7000DFF89C91039630238DF82A304FF0010ADA
:108D800023461E4613F8012B0AB1252AF9D1B6EB6A
:108D9000040B0BD05B46224629463846FFF76EFF90
:108DA000013000F0A380099B5B4409933378002BCA
:108DB00000F09C8000234FF0FF32CDE905230136FF
:108DC000049307938DF853301A933446052214F810
:108DD000011B4F4800F034FA049BC0B9D90644BFC8
:108DE00020228DF853201A0744BF2B228DF85320E0
:108DF00032782A2A13D0079A344600200A262146C0
:108E000011F8013B303B092B4BD970B914E0A0EBB2
:108E100009000AFA00F0184304902646D5E7039AA1
:108E2000111D12680391002A01DB079204E05242EF
:108E300043F002030792049323782E2B0CD163781E
:108E40002A2B33D1039B1A1D1B680392002BB8BF3A
:108E50004FF0FF33023405932E4E21780322304623
:108E600000F0EEF938B14023801B03FA00F0049BB8
:108E700003430134049314F8011B27488DF828108C
:108E8000062200F0DDF9002838D0244B13BB039BE9
:108E9000073323F0070308330393099B43440993E3
:108EA0006EE706FB023201200C46A8E700230134DE
:108EB000059319460A26204610F8012B303A092A54
:108EC00003D9002BC8D00591C6E706FB0121012379
:108ED0000446F0E703AB00932A46114B04A9384639
:108EE000AFF30080B0F1FF3F8046D6D1AB895B067F
:108EF0003FF534AF09981DB0BDE8F08F03AB009388
:108F00002A46074B04A9384600F082F8EAE700BF7A
:108F100018B202001EB2020022B2020000000000DD
:108F20007D8C02002DE9F04791461F468A680B6947
:108F3000DDF820809342B8BF1346C9F8003091F89D
:108F4000432006460C4612B10133C9F800302368AD
:108F5000990642BFD9F800300233C9F800302568BD
:108F600015F0060507D104F1190AE368D9F80020C5
:108F70009B1AAB4228DC94F843302268003318BFB8
:108F8000012392062DD404F1430239463046C047EE
:108F9000013020D02368E568D9F8002003F00603EB
:108FA000042B08BFAD1AA36822690CBF25EAE5753A
:108FB00000259342C4BF9B1AED184FF000091A34E4
:108FC0004D451AD1002008E001235246394630466B
:108FD000C047013003D14FF0FF30BDE8F0870135C5
:108FE000C3E7E1185A1C302081F84300224494F86A
:108FF000451082F843100233C5E701232246394663
:109000003046C0470130E6D009F10109D8E7000039
:109010002DE9F04306460C4601F14300097E85B078
:109020006E29984617460C9B00F0BA8024D8632915
:1090300039D00AD8002900F0C380582900F0918067
:1090400004F1420584F8421035E0642901D0692911
:10905000F6D125681A6815F0800F02F104012CD0B2
:1090600012681960002A03DA2D23524284F8433033
:10907000DFF8BCC10A233FE0732900F0A58008D8BF
:109080006F2921D07029DBD1226842F020022260B2
:1090900003E0752918D07829D2D1782284F84520A8
:1090A000DFF890C161E01A68111D1960136884F837
:1090B000423004F14205012393E01268196015F073
:1090C000400F18BF12B2CDE7D4F800C01A681CF0E8
:1090D000800F02F104051D6001D0126803E01CF04E
:1090E000400FFAD01288DFF848C16F290CBF08235F
:1090F0000A23002184F843106568A560002DA2BFF3
:10910000216821F0040121600AB9002D46D00546EE
:10911000B2FBF3F103FB112E93421CF80EE005F8AD
:1091200001ED39D9082B0BD12368DA0708D523695B
:1091300062689A42DEBF302305F8013C05F1FF3535
:10914000401B2061CDF800803B4603AA21463046F3
:10915000FFF7E8FE013049D14FF0FF3005B0BDE820
:10916000F083DFF8CCC084F845101D68216855F8FD
:10917000042B1D600D060BD5CD0744BF41F0200127
:1091800021601AB9236823F0200323601023B0E77D
:109190004B0648BF92B2EFE70A46B9E70546C1E77A
:1091A0001A68D4F800C06169151D1D601CF0800F9D
:1091B000136801D0196003E01CF0400FFAD0198049
:1091C000002323610546BDE71A68111D1960156863
:1091D00062680021284600F033F808B1401B606047
:1091E00063682361002384F84330ABE723692A4690
:1091F00039463046C0470130AED023689B0713D4B0
:10920000E068039B9842B8BF1846A7E701234A4687
:1092100039463046C04701309ED00135E368039A95
:109220009B1AAB42F2DCEBE7002504F11909F5E7E4
:1092300029B202003AB20200000000000000000063
:1092400001F0FF01102A2BDB10F0070F08D010F8F7
:10925000013B013A8B422DD010F0070F42B3F6D1FB
:10926000F0B441EA012141EA014122F007047FF014
:1092700000070023F0E80256083C85EA010586EA6B
:10928000010685FA47F5A3FA87F586FA47F6A5FAA7
:1092900087F68EB9EED1F0BC01F0FF0102F00702B3
:1092A00032B110F8013B013A83EA010313B1F8D15E
:1092B0000020704701387047002D06BF354603383F
:1092C000073815F0010F07D1013015F4807F02BF78
:1092D000013015F4C03F0130F0BC0138704700BFC9
:1092E000884210B501EB020302D983421C4607D81D
:1092F000421E994208D011F8014B02F8014FF8E7DD
:1093000083189A1A9A4200D110BD14F8011D03F86F
:10931000011DF7E738B50546002945D051F8043C52
:109320000C1F002BB8BFE41800F0D2F81F4A1368D6
:10933000104633B9636014602846BDE8384000F039
:10934000CDB8A3420CD921686218934204BF1A68B1
:109350005B68636004BF521822600460ECE7134648
:109360005A680AB1A242FAD919685818A0420BD11A
:1093700020680144581882421960DDD11068526893
:109380005A6001441960D7E702D90C232B60D3E758
:10939000206821188A4204BF11685268626004BFC5
:1093A000091821605C60C7E738BD00BFAC2E002003
:1093B000F8B5CD1C25F0030508350C2D38BF0C255C
:1093C000002D064601DBA94203D90C23336000209F
:1093D000F8BD00F07DF821490A6814469CB9204F79
:1093E0003B6823B92146304600F062F838602946D0
:1093F000304600F05DF8431C23D10C233360304627
:1094000000F06CF8E3E723685B1B17D40B2B03D940
:1094100023601C44256004E06368A2420CBF0B601B
:109420005360304600F05AF804F10B00231D20F081
:109430000700C21ACCD01B1AA350C9E722466468A1
:10944000CCE7C41C24F00304A042E3D0211A304628
:1094500000F02EF80130DDD1CFE700BFAC2E0020A8
:10946000B02E0020F8B5074614460E4621B9114625
:10947000BDE8F840FFF79CBF22B9FFF74BFF254638
:109480002846F8BD00F030F8A0420FD221463846F9
:10949000FFF78EFF05460028F2D031462246FFF73F
:1094A000AFFB31463846FFF735FFE9E73546E7E7DA
:1094B00038B5064C002305460846236000F01EF828
:1094C000431C02D1236803B12B6038BDC42E002099
:1094D000014800F011B800BFCC2E0020014800F078
:1094E0000CB800BFCC2E002051F8043C181F002BF4
:1094F000BCBF0B58C018704770477047044A0549F5
:109500001368002B08BF0B461844106018467047BC
:10951000B42E0020D82E0020FEE700BF2DE9F04336
:109520002DED028B8BB055EC104B00F055F8284B0D
:10953000B0EE408AF0EE608A93F90060731C12D09E
:1095400022462B462046294600F06AFD074650B9C0
:109550004FF000084FF000092046294642464B468E
:1095600000F036FD40B9B0EE480AF0EE680A0BB0E4
:10957000BDEC028BBDE8F0830122164B08970092E8
:10958000CDE90445CDE90245019396B142464B46EB
:109590004046494600F0D4FB022ECDE906010AD12F
:1095A00001F0E2FC21230360089B63B99DED068B6B
:1095B000D9E7CDE90689684600F0DAF80028EFD04F
:1095C000089B002BF2D001F0CFFC089B0360EDE775
:1095D000002B00204CB202002DE9F041634A55EC0B
:1095E000104BAA4300F09D80002D2B4610EE101A60
:1095F00053DD5FEA255C00F0B180C3F31303ACF2E6
:10960000FF3CCA0F43F480131CF0010F02EB43032D
:109610004FEA410203D0D20F02EB43038A00002736
:109620004FEA6C0C384616214FF4001405199D4280
:1096300002DC5B1B281927445B00013903EBD27362
:109640004FEA54044FEA4202F0D10D468E462026DE
:109650004FF0004109E042D0D40F013E4FEA5101E2
:1096600004EB43034FEA420242D0834201EB0E0473
:10967000F1DD002C04EB010E09DB80461B1A94423D
:1096800088BF03F1FF33121B0D444046E4E7BEF1EF
:10969000000FF2DB00F10108F0E725F00042224361
:1096A00037D0002D4DD1CC0A153B49052246002C60
:1096B000F9D0E50255D4002000E028465200D4023B
:1096C00000F10105F9D514460A46A940C5F1200567
:1096D00022FA05F5A3EB000C45EA04038DE794425A
:1096E000BAD8002C04EB010ED1DB98460023CAE760
:1096F000134310D16E087910FB0701F17F5101F57A
:10970000001148BF46F0004601EB0C53324643ECD3
:10971000102BBDE8F0816A1C16BF691C01374E088A
:10972000E9E710EE102A2B4610EE100A294600F049
:10973000DDF922462B4600F023F841EC100BBDE882
:10974000F08110EE102A2046294600F017F8024654
:109750000B4600F0F5FA41EC100BDAE72A466346B7
:10976000A9E70A4620254FF0FF30B1E70000F07F5F
:109770000020704781F0004102E000BF83F0004309
:1097800030B54FEA41044FEA430594EA050F08BF9C
:1097900090EA020F1FBF54EA000C55EA020C7FEA60
:1097A000645C7FEA655C00F0E2804FEA5454D4EBDD
:1097B0005555B8BF6D420CDD2C4480EA020281EAA7
:1097C000030382EA000083EA010180EA020281EADF
:1097D0000303362D88BF30BD11F0004F4FEA013131
:1097E0004FF4801C4CEA113102D0404261EB410140
:1097F00013F0004F4FEA03334CEA133302D05242C6
:1098000063EB430394EA050F00F0A780A4F1010481
:10981000D5F1200E0DDB02FA0EFC22FA05F28018BB
:1098200041F1000103FA0EF2801843FA05F35941A1
:109830000EE0A5F120050EF1200E012A03FA0EFC20
:1098400028BF4CF0020C43FA05F3C01851EBE3714A
:1098500001F0004507D54FF0000EDCF1000C7EEB67
:1098600000006EEB0101B1F5801F1BD3B1F5001FA5
:109870000CD349085FEA30004FEA3C0C04F10104C4
:109880004FEA445212F5800F80F09A80BCF1004FED
:1098900008BF5FEA500C50F1000041EB045141EA6F
:1098A000050130BD5FEA4C0C404141EB010111F470
:1098B000801FA4F10104E9D191F0000F04BF01461B
:1098C0000020B1FA81F308BF2033A3F10B03B3F1F9
:1098D00020020CDA0C3208DD02F1140CC2F10C0289
:1098E00001FA0CF021FA02F10CE002F11402D8BFE7
:1098F000C2F1200C01FA02F120FA0CFCDCBF41EAB3
:109900000C019040E41AA2BF01EB0451294330BD81
:109910006FEA04041F3C1CDA0C340EDC04F114045E
:10992000C4F1200220FA04F001FA02F340EA030035
:1099300021FA04F345EA030130BDC4F10C04C4F17B
:10994000200220FA02F001FA04F340EA030029465B
:1099500030BD21FA04F0294630BD94F0000F83F4A5
:10996000801306BF81F480110134013D4EE77FEA88
:10997000645C18BF7FEA655C29D094EA050F08BFD4
:1099800090EA020F05D054EA000C04BF19461046B5
:1099900030BD91EA030F1EBF0021002030BD5FEAF9
:1099A000545C05D14000494128BF41F0004130BD21
:1099B00014F580043CBF01F5801130BD01F0004575
:1099C00045F0FE4141F470014FF0000030BD7FEAE8
:1099D000645C1ABF194610467FEA655C1CBF0B46E3
:1099E000024650EA013406BF52EA033591EA030FFA
:1099F00041F4002130BD00BF90F0000F04BF0021F2
:109A0000704730B54FF4806404F132044FF0000524
:109A10004FF0000150E700BF90F0000F04BF00219D
:109A2000704730B54FF4806404F1320410F0004503
:109A300048BF40424FF000013EE700BF42004FEAFE
:109A4000E2014FEA31014FEA02701FBF12F07F437B
:109A500093F07F4F81F06051704732F07F4208BF32
:109A6000704793F07F4F04BF41F40021704730B539
:109A70004FF4607401F0004521F000411CE700BF85
:109A800050EA010208BF704730B54FF000050AE008
:109A900050EA010208BF704730B511F0004502D509
:109AA000404261EB41014FF4806404F132045FEA0B
:109AB000915C3FF4D8AE4FF003025FEADC0C18BFB4
:109AC00003325FEADC0C18BF033202EBDC02C2F1A6
:109AD000200300FA03FC20FA02F001FA03FE40EA38
:109AE0000E0021FA02F11444BDE600BF70B54FF03C
:109AF000FF0C4CF4E06C1CEA11541DBF1CEA13551A
:109B000094EA0C0F95EA0C0F00F0DEF82C4481EA81
:109B1000030621EA4C5123EA4C5350EA013518BFA1
:109B200052EA033541F4801143F4801338D0A0FB8E
:109B300002CE4FF00005E1FB02E506F00042E0FB3B
:109B400003E54FF00006E1FB03569CF0000F18BF41
:109B50004EF0010EA4F1FF04B6F5007F64F54074E9
:109B600004D25FEA4E0E6D4146EB060642EAC6217C
:109B700041EA55514FEAC52040EA5E504FEACE2EE9
:109B8000B4F1FD0C88BFBCF5E06F1ED8BEF1004FEC
:109B900008BF5FEA500E50F1000041EB045170BD68
:109BA00006F0004646EA010140EA020081EA0301AC
:109BB000B4EB5C04C2BFD4EB0C0541EA045170BDA8
:109BC00041F480114FF0000E013C00F3AB8014F122
:109BD000360FDEBF002001F0004170BDC4F100046B
:109BE000203C35DA0C341BDC04F11404C4F12005EC
:109BF00000FA05F320FA04F001FA05F240EA020047
:109C000001F0004221F0004110EBD37021FA04F67C
:109C100042EB06015EEA430E08BF20EAD37070BD36
:109C2000C4F10C04C4F1200500FA04F320FA05F095
:109C300001FA04F240EA020001F0004110EBD37097
:109C400041F100015EEA430E08BF20EAD37070BD07
:109C5000C4F1200500FA05F24EEA020E20FA04F3E0
:109C600001FA05F243EA020321FA04F001F000418F
:109C700021FA04F220EA020000EBD3705EEA430E00
:109C800008BF20EAD37070BD94F0000F0FD101F02F
:109C90000046400041EB010111F4801F08BF013C68
:109CA000F7D041EA060195F0000F18BF704703F0A6
:109CB0000046520043EB030313F4801F08BF013D2D
:109CC000F7D043EA0603704794EA0C0F0CEA1355E9
:109CD00018BF95EA0C0F0CD050EA410618BF52EAA3
:109CE0004306D1D181EA030101F000414FF00000A9
:109CF00070BD50EA410606BF1046194652EA4306B7
:109D000019D094EA0C0F02D150EA013613D195EA2A
:109D10000C0F05D152EA03361CBF104619460AD172
:109D200081EA030101F0004141F0FE4141F470017C
:109D30004FF0000070BD41F0FE4141F4780170BD6C
:109D400070B54FF0FF0C4CF4E06C1CEA11541DBFD1
:109D50001CEA135594EA0C0F95EA0C0F00F0A7F8D3
:109D6000A4EB050481EA030E52EA03354FEA013100
:109D700000F088804FEA03334FF0805545EA131313
:109D800043EA12634FEA022245EA111545EA1065DB
:109D90004FEA00260EF000419D4208BF964244F172
:109DA000FD0404F5407402D25B084FEA3202B61A91
:109DB00065EB03055B084FEA32024FF480104FF465
:109DC000002CB6EB020E75EB030E22BFB61A7546D9
:109DD00040EA0C005B084FEA3202B6EB020E75EB6C
:109DE000030E22BFB61A754640EA5C005B084FEAD4
:109DF0003202B6EB020E75EB030E22BFB61A7546A1
:109E000040EA9C005B084FEA3202B6EB020E75EBAB
:109E1000030E22BFB61A754640EADC0055EA060E6C
:109E200018D04FEA051545EA16754FEA06164FEAAF
:109E3000C30343EA52734FEAC2025FEA1C1CC0D15B
:109E400011F4801F0BD141EA00014FF000004FF0E8
:109E5000004CB6E711F4801F04BF01430020B4F1A9
:109E6000FD0C88BFBCF5E06F3FF6AFAEB5EB030C61
:109E700004BFB6EB020C5FEA500C50F1000041EB5E
:109E8000045170BD0EF0004E4EEA113114EB5C042B
:109E9000C2BFD4EB0C0541EA045170BD41F48011FE
:109EA0004FF0000E013C90E645EA060E8DE60CEA06
:109EB000135594EA0C0F08BF95EA0C0F3FF43BAF23
:109EC00094EA0C0F0AD150EA01347FF434AF95EADA
:109ED0000C0F7FF425AF104619462CE795EA0C0FBE
:109EE00006D152EA03353FF4FDAE1046194622E78B
:109EF00050EA410618BF52EA43067FF4C5AE50EA65
:109F000041047FF40DAF52EA43057FF4EBAE12E754
:109F10004FF0FF3C06E000BF4FF0010C02E000BF35
:109F20004FF0010C4DF804CD4FEA410C7FEA6C5C18
:109F30004FEA430C18BF7FEA6C5C1BD001B050EABB
:109F4000410C0CBF52EA430C91EA030F02BF90EAA6
:109F5000020F0020704710F1000F91EA030F58BF65
:109F6000994208BF90422CBFD8176FEAE37040F0C7
:109F7000010070474FEA410C7FEA6C5C02D150EA65
:109F8000013C07D14FEA430C7FEA6C5CD6D152EA20
:109F9000033CD3D05DF8040B704700BF84461046E5
:109FA00062468C461946634600E000BF01B5FFF7E4
:109FB000B7FF002848BF10F1000F01BD4DF808EDB4
:109FC000FFF7F4FF0CBF012000205DF808FB00BF85
:109FD0004DF808EDFFF7EAFF34BF012000205DF8DF
:109FE00008FB00BF4DF808EDFFF7E0FF94BF01202C
:109FF00000205DF808FB00BF4DF808EDFFF7CEFF2D
:10A0000094BF012000205DF808FB00BF4DF808ED6B
:10A01000FFF7C4FF34BF012000205DF808FB00BF3C
:10A020004FEA410C7FEA6C5C02D150EA013C0AD154
:10A030004FEA430C7FEA6C5C02D152EA033C02D146
:10A040004FF0000070474FF0010070474FEA4102A7
:10A0500012F5001215D211D56FF47873B3EB62527A
:10A0600012D94FEAC12343F0004343EA505311F0A1
:10A07000004F23FA02F018BF404270474FF0000033
:10A08000704750EA013005D111F0004008BF6FF071
:10A09000004070474FF00000704700BF4A0011D2E7
:10A0A00012F5001211D20DD56FF47873B3EB625232
:10A0B0000ED44FEAC12343F0004343EA505323FA3E
:10A0C00002F070474FF00000704750EA013002D1B3
:10A0D0004FF0FF3070474FF00000704703685A00A0
:10A0E0004CBF43F0004323F000431844704700BFC7
:10A0F00069B32DE9F04701F1FF3917460646C84616
:10A100004FF0000A0AEB080404EBD4746410E50075
:10A1100071190846FFF7E2FFA145034605F1080063
:10A12000304409D0BB4209D8FFF7D8FF0138B84204
:10A130000AD204F1010AE5E7BB4205D9A24502D0E3
:10A1400004F1FF38DEE700210846BDE8F087084645
:10A15000704700BF012807D0022807D0044B002811
:10A160000CBF1846002070470248704702487047ED
:10A170001DA8020025A802002DA8020030B5244B1E
:10A1800083B004468D1E4BB301A92846AFF300806F
:10A19000F0B101992A46FFF7ABFF0146C0B1FFF7C6
:10A1A0009DFF4B68A064012B2ED0002B01F1040011
:10A1B00026DBFFF793FF0023C4E913030368002B9A
:10A1C00012DBFFF78BFF00232061184603B030BD80
:10A1D000002323610923184603B030BD0D490E4802
:10A1E000091AC9100191D5E7C3F30360FFF7B2FF65
:10A1F000002814BF002309232061184603B030BD96
:10A200000123C4E91303D9E7002323610523DCE715
:10A210000000000084B302009CB202000368DA0769
:10A2200010B5044606D49B0700F1480009D500F09C
:10A2300051FC2368590709D51A070ED5DB0613D53B
:10A2400010BD00F03FFC23685907F5D404F1D0009D
:10A2500000F048FC23681A07F0D404F5A87000F059
:10A2600049FC2368DB06EBD404F5E870BDE8104038
:10A2700000F084BC036803B103441846704700BF74
:10A28000704700BF70B504460D46296C2046FFF7A5
:10A2900075FF064688B92B6C63612A4623692146FF
:10A2A000012098470828F0D0072806D13046296CAD
:10A2B000FFF7E6FF281D00F0F9FB00F04DFE00BFA0
:10A2C0002DE9F0470C1D054617460FCCADF5727D04
:10A2D00003AE0FC60FCC0FC60FCC0FC694E80F000D
:10A2E00002ACD5F80C80D5F8189086E80F00002352
:10A2F0002846216C2360FFF741FF002F064614BF5C
:10A300000A27092746BB236C6B614FF4F072214684
:10A310007AA8FEF775FC2B697AAA29463846984731
:10A32000889B8246CDE90049394663642A462B461C
:10A330000120C047D8B94FF4F0727AA92046FEF741
:10A340005FFCBAF1080F18D1216C2846FFF716FF01
:10A3500006460927002ED6D0A36B47F01001CDE9A1
:10A3600000492A46636401202B46C04700B10926F4
:10A3700030460DF5727DBDE8F087BAF1070FF6D1D2
:10A380003046216CFFF77CFF03A800F08FFB00BF75
:10A39000F0B5CB6B0B640E1D0F4604460FCEF9B023
:10A3A00001AD0FC50FCE0FC50FCE0FC596E80F003C
:10A3B0004FF0FF3685E80F00009606E023696A46F5
:10A3C000214698470828054608D110992046FFF7EE
:10A3D000D5FE0028F2D0092079B0F0BD6846FFF71D
:10A3E0001DFF062DF7D139462046FFF74BFF00BF72
:10A3F00030B4DD6BC160826119461D64002230BC3F
:10A40000FFF75EBF70B5C66843690B64AEB90369F8
:10A410000A4604460D46014602209847072805D003
:10A4200008280FD129462046FFF72CFF3046296C1B
:10A43000FFF726FF281D00F039FB0122FFF740FF40
:10A4400000F08AFD00F088FDC26822B1CA6B0A6480
:10A450000022FFF735BFFFF79BBF00BF042910D8CC
:10A46000DFE801F005030F0303000120704743B943
:10A470000F2A06D800EB820218465368009A136030
:10A4800070470220704700BF10B584B0002303ACB2
:10A490000A4600941946FFF7E1FF039804B010BD87
:10A4A000042910D8DFE801F005030F0303000120A1
:10A4B000704743B90F2A06D800EB8200009A126851
:10A4C0004260184670470220704700BF10B584B044
:10A4D000002303AC039200940A461946FFF7E0FFFD
:10A4E00004B010BDF0B5D36B1364151D07460E46BE
:10A4F0000FCDADF50F7D17AC0FC40FCD0FC40FCD31
:10A500000FC495E80F004FF0FF3584E80F00169553
:10A5100010E016A8FFF7DAFF314616A8B84716AACA
:10A52000694678B9049B08209847052804460AD054
:10A53000092807D026996846FFF720FE6A460C21B5
:10A540000028E6D0092416A8FFF768FE20460DF57E
:10A550000F7DF0BD2DE9F04FCC6C89B00D4654F85D
:10A56000041B0694174600F003081E46002B61D01A
:10A570000B0CDAB209048DF81D30022304EB8204BF
:10A5800005918DF81C302B6DB8F1020F08BFAC6B34
:10A5900013F0010378D1019300F008030293D4F87B
:10A5A00000A0BAF1000F00F01B81022E3ED0B4F8DB
:10A5B00000A0B4F802900434AA6C29F0010B0F211A
:10A5C00038469344FFF760FF83452DD82AF00102F7
:10A5D0005A44824294BF002001204FEA490303F00D
:10A5E00002030AF0010A43EA0A03012B30D03BB30D
:10A5F000022B15D1236823F0004BB8F1000F4DD189
:10A6000030B1029A002A6DD0BBF1000F00F0A0809B
:10A61000002B00DA04340BF1010B04EB8B04BEE7D2
:10A62000092009B0BDE8F08F0020D6E7D4F80490E7
:10A630000834C1E7090203230591ADF81C30A2E7F5
:10A64000B8F1000F02D0002840F09D800434A6E746
:10A65000B8F1000F2CD1A8B1D4E90023991C4FEA1E
:10A66000D272DDD005F158010133049100F09E80D3
:10A67000201DFFF7FFFD04AB01462846AFF3008025
:10A6800000286FD108348AE7384605A900F000FB9E
:10A690000028C5D1082009B0BDE8F08F0D2138464B
:10A6A000D5F82090FFF7F0FE814540D02368AFE752
:10A6B0000D213846D5F82090FFF7E6FE8145E1D11F
:10A6C000AB6A9C42DED12046FFF708FD0F2102460F
:10A6D0003846FFF7FBFE38462A460021FFF7F6FE14
:10A6E00007209EE7BBF1000F32D005F15803CDF8EB
:10A6F0000C8004F10409B046DDF808A01E4601E014
:10A70000DA4525D048460496FFF7B4FD04AB014670
:10A7100000222846AFF300800AF1010A09F104097A
:10A720000028EDD046462368DDF80C8070E7AB6A60
:10A730009C42BBD104224FF00009A318C5E90AB915
:10A74000C5E90C2323684B4538DB0123019362E7FD
:10A7500038460D21FFF798FE049B2862C5E90934AD
:10A7600006205EE781460D213846FFF78DFEB9F1E0
:10A77000020F28621FD12B46049A43F82C2F6B62DC
:10A78000AC6206204DE72046FFF7A8FC04340646DD
:10A79000AC632846AFF3008000283FF441AF384651
:10A7A00032460F21FFF792FE07203AE738460D2187
:10A7B000FFF76AFE2862049B6B62E1E70BF1010080
:10A7C00004EB8000FFF78AFC0F2102463846FFF7B2
:10A7D0007DFE38462A464946FFF778FE072020E7E7
:10A7E00005A9384600F054FA00287FF419AF019B00
:10A7F000002B3FF44FAF0F213846FFF745FE0E21E7
:10A8000002463846FFF762FE3846034A0F21FFF73B
:10A810005DFE072005E700BF000000000023FFF7F2
:10A8200099BE00BF0123FFF795BE00BF0223FFF7CB
:10A8300091BE00BF2DE9F0410546C4B0042900F2E5
:10A84000B380DFE801F09551B12B0300002B40F0FD
:10A85000AB80102A00F2A8802B68DC0600F1FA8099
:10A8600022AC2046019200F093F9AE6B019A0023CE
:10A87000012707FA03F11142304604D050F8041BB7
:10A8800044F8231006460133042BF2D12046AE6370
:10A8900000F074F9002044B0BDE8F081032B40F0D3
:10A8A0008380160C97B2F319102B7DD82B681A07EA
:10A8B00000F1DA8022AC204600F03EF904EBC6003D
:10A8C000A96B4FB10346FA001044CE1A9F5943F8C2
:10A8D000047B8342FAD111442046A96300F00AF9AF
:10A8E000002044B0BDE8F081012B4FEA12461FFA68
:10A8F00082F855D0052B57D106EB0807202F53D8E7
:10A900000F2E55D94746B8F1000F64D14046A96BC8
:10A91000B8F1000F00F0B780002722AC04EBC604AA
:10A92000043C01EBC00251F8040B44F8040F9142BF
:10A93000F9D17FB102AC102E304638BF102004EBA5
:10A94000C000843802EBC70152F8044B40F8044FB2
:10A950009142F9D1012B00F08F800F2EA96365D9A8
:10A9600017B102A800F0BEF8002044B0BDE8F081A5
:10A97000D3B9AC6B97B2012605F1040C06FA03F1CA
:10A980003942204604D050F8041B4CF823100446EA
:10A990000133102BF2D112F40050E5D1AC6304E086
:10A9A00006EB0802102A28D9022044B0BDE8F08145
:10A9B000102F6AD9103F2A68D0070AD5284622F0FE
:10A9C000010242F0020240F8482B019300F086F8A1
:10A9D000019B002F5BD02A68510731D40F2E29D953
:10A9E00002AC2046019300F081F8C6F11000002867
:10A9F000A96B019B91DC0A469DE70F2ED4D82A68EB
:10AA0000D10708D5284622F0030240F8482B0193CD
:10AA100000F05CF8019B019322AC204600F056F850
:10AA20004046A96B019B40B3002777E722A800F0BE
:10AA300051F895E722A8019300F050F8019BCFE769
:10AA4000284622F0040240F8D02B019300F04EF883
:10AA5000019BC3E723F010032B6005F5E87001921A
:10AA600000F096F8019AFBE623F008032B6005F549
:10AA7000A87000F061F81DE722AC0431A9632046FC
:10AA800000F020F870E7474667E7002793E70F2EAE
:10AA90003FF63CAF22AC2046019300F01FF8404641
:10AAA000A96B019B00287FF439AF56E700F1340110
:10AAB00091E838009C46A6464CF8045D90E8FF0FEC
:10AAC000E54600BD90EC210B704700BF80EC210BE8
:10AAD000704700BF90EC200B704700BF80EC200B4C
:10AAE000704700BFD0EC200B704700BFC0EC200BBC
:10AAF000704700BFF0EC0201F0EC0211F0EC022113
:10AB0000F0EC0231F0EC0241F0EC0251F0EC0261A9
:10AB1000F0EC0271F0EC0281F0EC0291F0EC02A199
:10AB2000F0EC02B1F0EC02C1F0EC02D1F0EC02E189
:10AB3000F0EC02F1704700BFE0EC0201E0EC021122
:10AB4000E0EC0221E0EC0231E0EC0241E0EC0251E9
:10AB5000E0EC0261E0EC0271E0EC0281E0EC0291D9
:10AB6000E0EC02A1E0EC02B1E0EC02C1E0EC02D1C9
:10AB7000E0EC02E1E0EC02F1704700BFB0FC0181C3
:10AB8000B0FC0191B0FC01A1B0FC01B1704700BF65
:10AB9000A0FC0181A0FC0191A0FC01A1A0FC01B1DD
:10ABA000704700BFEC4600B52DE900502DE9FF1FAE
:10ABB0004FF000032DE90C0001A9FFF7E9FBDDF8D8
:10ABC00040E012B0704700BFEC4600B52DE90050E0
:10ABD0002DE9FF1F4FF000032DE90C0001A9FFF73D
:10ABE00011FCDDF840E012B0704700BFEC4600B544
:10ABF0002DE900502DE9FF1F4FF000032DE90C0057
:10AC000001A9FFF721FCDDF840E012B0704700BF5A
:10AC1000EC4600B52DE900502DE9FF1F4FF0000371
:10AC20002DE90C0001ABFFF7E3FBDDF840E012B0CB
:10AC3000704700BFEC4600B52DE900502DE9FF1F1D
:10AC40004FF000032DE90C0001AAFFF74BFCDDF8E3
:10AC500040E012B0704700BF027A82B9437AABB1CC
:10AC60004268013B10B4437213680321141D017242
:10AC70001A02446002605DF8044B180E70470368C6
:10AC8000013A02721A020260180E7047B020704733
:10AC90002DE9F043054685B00E464FF000083046DA
:10ACA000FFF7DAFFB028044600F0B280070620D58F
:10ACB00000F0F003802B4DD0902B36D0A02B60D02D
:10ACC000B02B74D0C02B00F08B8000F0F803D02B99
:10ACD0000BD100F00702013242F4002205230121CA
:10ACE0002846FFF7A7FD0028D9D0092005B0BDE808
:10ACF000F0830DF10C09002319468700CDF8009070
:10AD00000D222846FFF7AAFBFFB2039BCDF8009067
:10AD1000043760064CBFDF1BFF18002319460D22C5
:10AD200028460397FFF7BCFBB9E700F00D030D2B96
:10AD3000DBD003AF002300F00F021946009728462E
:10AD4000FFF78CFB0023009719460D222846FFF7DA
:10AD5000A7FBA4E73046FFF77FFF24020443B4F5C6
:10AD6000004FC2D024010023A2B219462846FFF7A3
:10AD700061FD0028B9D114F4004F18BF4FF001084D
:10AD80008DE7C24302F007034FF47F621A410107C7
:10AD900002F47F624FF0000348BF42F4804219463C
:10ADA0002846FFF747FD00283FF479AF9DE7B1281B
:10ADB00033D0B22800F0A080B32841D000F0FC03CB
:10ADC000B42B92D000F007020132012342F400229A
:10ADD00019462846FFF72EFD00283FF460AF84E7B0
:10ADE000C62851D0C7285AD000F0F803C02B69D02C
:10ADF000C82875D0C9287FF478AF3046FFF72CFFFC
:10AE0000020300F00F0002F470220130024365E7F4
:10AE1000B8F1000F27D0002068E73046FFF71CFF8D
:10AE200000283FF462AF10F0F0037FF45EAF0246FB
:10AE300019462846FFF7FEFC00283FF430AF54E7E0
:10AE40003046FFF709FF010300F00F0001F4702105
:10AE5000421C01230A4328461946FFF7EBFC002851
:10AE60003FF41DAF41E703AC43460E224146009438
:10AE70002846FFF7F3FA0094284643460F2241463E
:10AE8000FFF70EFB404631E73046FFF7E5FE0103D2
:10AE900000F00F0001F47021421C0323DAE7304672
:10AEA000FFF7DAFE00283FF420AF10F0F0037FF444
:10AEB0001CAF024604212846FFF7BCFC00283FF4E3
:10AEC000EEAE12E700F00F020132032342F420221B
:10AED00019462846FFF7AEFC00283FF4E0AE04E731
:10AEE0003046FFF7B9FE00F0F00200F00F03103219
:10AEF000013343EA0232F1E600230DF10C090D2281
:10AF00001946CDF800902846FFF7A8FA3046FFF71B
:10AF1000A3FE02064FF002070CD5039B00F07F0052
:10AF2000B840034430460393FFF796FE030607F14B
:10AF30000707F2D4039BCDF8009000F07F0403F5DF
:10AF40000172BC400023144419460D222846039484
:10AF5000FFF7A6FAA3E600BF08B5062000F032F816
:10AF60000120FEF7D9FA0000014B1868704700BFB6
:10AF70009C2A00201F2938B504460D4604D9162303
:10AF800003604FF0FF3038BD426C12B152F82130EF
:10AF90004BB9204600F030F82A4601462046BDE86D
:10AFA000384000F017B8012B0AD0591C03D11623E2
:10AFB00003600120E7E7002442F82540284698472F
:10AFC0000020E0E7024B01461868FFF7D3BF00BF3F
:10AFD0009C2A002038B5074C002305460846114638
:10AFE000236000F013F8431C02D1236803B12B60E7
:10AFF00038BD00BFC42E002000F000B8024B58221C
:10B000001A604FF0FF307047C42E0020024B5822C8
:10B010001A604FF0FF307047C42E0020F8B500BF13
:10B02000F8BC08BC9E467047F8B500BFF8BC08BC29
:10B030009E46704700000000000000000000000075
:10B040000338FDD870470000203E3E3E20526F7608
:10B05000657264796E20414852532076312E30302B
:10B060002E303000203E3E3E20496E697469616C8E
:10B07000697A65204465766963650000203E3E3E3E
:10B0800020537461727420416363656C65726F6DE7
:10B09000657465722043616C6962726174696F6E78
:10B0A00000000000203E3E3E205374617274204731
:10B0B00079726F73636F70652043616C696272614E
:10B0C00074696F6E00000000203E3E3E20537461A4
:10B0D0007274204D61676E65746F6D657465722062
:10B0E00043616C6962726174696F6E0025642C251E
:10B0F000642C2564000000002C25642C25642C257C
:10B100006400000080B2020090B20200080000005B
:10B1100058B2020070B202000800000070B20200D3
:10B1200078B2020008000000203E3E3E20496E69D1
:10B130007469616C697A6520424C4500000000002A
:10B140000338FDD870470000203E3E3E20496E691E
:10B150007469616C697A6520494D5500203E3E3E18
:10B1600020494D552052656164790000203E3E3EE5
:10B1700020494D55204661696C656421205B45522C
:10B18000524F525D00000000203E3E3E204D4147A0
:10B19000204661696C656421205B4552524F525DC7
:10B1A00000000000203E3E3E204D41472052656198
:10B1B00064790000256420256420256400000000D7
:10B1C000203E3E3E204779726F73636F7065204367
:10B1D000616C6962726174696F6E20436F6D706C2F
:10B1E0006574656421000000203E3E3E204163639B
:10B1F000656C65726F6D657465722043616C696220
:10B20000726174696F6E20436F6D706C65746564F4
:10B2100021000000A02A0020232D302B2000686C84
:10B220004C00656667454647003031323334353669
:10B2300037383941424344454600303132333435A2
:10B240003637383961626364656600007371727401
:08B250000000000000000000F6
:10B258000D76020000000000DD7102000000000011
:08B26800217402000000000047
:08B27000416E02000000000025
:08B27800696E020000000000F5
:10B28000C977020000000000DD7702000000000026
:0CB2900008B10181B0B000840000000093
:10B29C00F0AFFF7F0100000008C0FF7FE8FFFF7FD9
:10B2AC006CC0FF7FB0AD0C806CC1FF7F0100000053
:10B2BC006CC7FF7FA908B18084C7FF7F0100000025
:10B2CC0038C9FF7FB0B0AC8090CAFF7FB0AF0C80A4
:10B2DC0044CEFF7FAB08B18048CFFF7FB0AF1A8060
:10B2EC0084D2FF7FB0AF1880E8D5FF7FB0AF1C8051
:10B2FC0094D8FF7F0100000078EEFF7FB0A9028098
:10B30C0010EFFF7FB0B0A88060EFFF7F010000005E
:10B31C0068EFFF7FB0B0AA809CEFFF7FAE71B28068
:10B32C0064F0FF7FAB3F3880BCF0FF7F0100000072
:10B33C00C8F0FF7FB0B0AA8004F1FF7F01000000CD
:10B34C0098F1FF7FAB0EB28000F2FF7FB0AF0880A8
:10B35C00C0F4FF7F01000000D0F4FF7FAC3F0380FE
:10B36C0040F7FF7F010000001CF9FF7FB0AD0480A7
:08B37C00DCFBFF7F0100000073
:10B384000090D003A02A002000000000000000006C
:10B3940000000000000000000000000000000000A9
:10B3A4000000000000000000000000000000000099
:10B3B4000000000000000000000000000000000089
:10B3C4000000000000000000000000000000000079
:10B3D4000000000000000000000000000000000069
:10B3E400000000000000000001000000696202008B
:04B3F40041620200B0
:040000032000630175
:00000001FF
