:020000022000DC
:106000000000012001630200296302002B630200EB
:106010002D6302002F6302003163020000000000C4
:1060200000000000000000000000000033630200D8
:10603000356302000000000037630200396302008C
:10604000616F02003B630200C56F02003B63020008
:106050003B6302003B6302003B6302003B630200C0
:106060003B6302003B6302003B6302003B630200B0
:106070003B6302003B6302003B6302003B630200A0
:106080003B630200916302003B6302003B6302003A
:10609000316402003B630200B17502003B63020001
:1060A0003B6302003B6302003B6302003B63020070
:1060B0003B6302003B6302000000000000000000A0
:1060C0003B6302003B6302003B6302003B63020050
:1060D0003B6302003B6302003B63020000000000E0
:1060E00000000000000000000000000000000000B0
:1060F00000000000000000000000000000000000A0
:10610000000000000000000000000000000000008F
:10611000000000000000000000000000000000007F
:10612000000000000000000000000000000000006F
:10613000000000000000000000000000000000005F
:10614000000000000000000000000000000000004F
:10615000000000000000000000000000000000003F
:10616000000000000000000000000000000000002F
:10617000000000000000000000000000000000001F
:10618000000000000000000000000000000000000F
:1061900000000000000000000000000000000000FF
:1061A00000000000000000000000000000000000EF
:1061B00000000000000000000000000000000000DF
:1061C00000000000000000000000000000000000CF
:1061D00000000000000000000000000000000000BF
:1061E00000000000000000000000000000000000AF
:1061F000000000000000000000000000000000009F
:106200000348044B834202D0034B03B11847704745
:10621000042B0020042B0020000000000548064944
:10622000091A891001EBD171491002D0034B03B157
:1062300018477047042B0020042B002000000000AA
:1062400010B5064C237843B9FFF7DAFF044B13B1BE
:106250000448AFF300800123237010BD042B0020FD
:10626000000000006077020008B5054B1BB105492E
:106270000548AFF30080BDE80840FFF7CFBF00BF7F
:1062800000000000082B002060770200154B002B57
:1062900008BF134B9D46A3F5803A00218B460F465D
:1062A0001348144A121A01F02DFA0F4B002B00D09C
:1062B00098470E4B002B00D0984700200021040087
:1062C0000D000D48002802D00C48AFF3008001F00B
:1062D000F5F92000290000F0D7FF01F0DBF900BF3D
:1062E0000000080000000120000000000000000085
:1062F000042B0020602D00200000000000000000A2
:106300000649074A074B9B1A03DD043BC858D05087
:10631000FBDC00F099FBFFF7B9FF0000A477020057
:10632000982A0020042B0020FEE7FEE7FEE7FEE7A8
:10633000FEE7FEE7FEE7FEE7FEE7FEE700B585B015
:1063400000230390194601AA44F20100CDE901336C
:1063500000F004F805B05DF804FB00BF72B6094B0D
:106360001B68DB0700D500BEBFF34F8F0649074B04
:10637000CA6802F4E0621343CB60BFF34F8F00BFE3
:10638000FDE700BFF0ED00E000ED00E00400FA05DD
:10639000F8B52049204B0024C1F84041C1F84441E0
:1063A000C1F84841C1F84C41C1F80041C1F804416D
:1063B0001B6833B31948D1F8045501681A686D1A7F
:1063C00025F07F45AA4227460DD8197CDE69AD1A13
:1063D000144419B11F74D3E9052090471EB1334608
:1063E0001A68AA42F1D90E490E4A0B7812789A42DD
:1063F00008D00D490D4A41F823404FF48013C2F8EC
:106400000031F8BD531CDBB2022B08BF00230B7018
:10641000EFE700BF00100140402C00203C2C002082
:10642000392C0020382C0020302C002000E100E026
:106430002DE9F04FB14AB24913780978B14E99422B
:1064400085B0356800F089810133DBB2022B08BFCB
:106450000023AD491370AD4AD1F800C052F8232093
:106460000CEB020323F07F430B60002D00F0C28190
:106470002B689A42C0F0C08100273846BE4603E030
:106480000B68934200F26C81EC68C5F800E0D21A08
:106490001844E9693CB10CEB000323F07F43C5E9E4
:1064A0000134EF612F460D460029E9D13160002506
:1064B0004FF0010A964B9749DFF86C9243F00103C5
:1064C00001934FF00008002F33D0D7E901BE3C46BE
:1064D000FF698D4B90481A68ABEB020323F07F43B2
:1064E000834200F201817344236000203268E0613E
:1064F000C4E9010001202074002A00F0F380106834
:10650000984208D3DFE0DEF800C0DC4580F0E08090
:1065100072465B466046D2F81CE0A3EB000BBEF16E
:10652000000FF0D1C4F800B0C4F81CE0D461002F13
:10653000CBD191F801E0087870454AD084460CEB45
:106540004C0C8B7801EBCC0C421CD0B283429CF8F3
:106550000430087004BF00200870022BDCF80840EB
:1065600025D0032B19D0012BE6D1237C002BE3D1BE
:10657000DCF80CB0C4F804B0DCF810E0C4F808E0B3
:10658000DCF81420E26099F80020DCF81800A06123
:10659000002A9ED063609B469BE73368002BCBD0DC
:1065A00000221A74DB69002BFBD13360C1E733682A
:1065B0005BB19C4200F0BA809B4602E0944261D0FD
:1065C0009346DBF81C20002AF8D100232374704581
:1065D000B4D13668B8F1000F01D1B5422CD086B3E2
:1065E000494A4E4B1468D3F80475DFF83881366891
:1065F00098F800203D1B25F07F450335002A00F068
:10660000B680AE422CBFA4196419444A24F07F44DA
:10661000C2F84045D2F80435DB1BE41B23F07F436E
:1066200024F07F440333A34200F2BA80002389F8A8
:10663000003005B0BDE8F08FBAF1000FF6D0002EA3
:10664000CED1364D364A324C4FF400314FF48033C0
:106650000127C2F880103C43C5F848334FF43C6032
:10666000C5F808336F60A047274BAF604FF43C601C
:106670001E60A0472B4B1E70002389F8003005B028
:10668000BDE8F08F5C4553D0E069D4F800E0CBF86A
:106690001C0000285BD09C4602687244026063457F
:1066A00018BF4FF001080023087891F801E0237427
:1066B0008DE7326800230120C4E90033A360E36161
:1066C00020747AB110683460C31A1360E261FAE68C
:1066D0006044C31ACEF80030C4F800B0C4F81CE01F
:1066E000D46124E73460EEE6A2EB0B0222F07F4295
:1066F0007245DED2AEEB02032360F6E6382C0020B2
:10670000392C0020402C00203C2C0020302C002074
:1067100030770200202B0020FEFF7F000010014098
:1067200000E100E02D2C00202C2C0020A346224666
:10673000D3F81CC0C6F800C0BCF1000F45D0D0692A
:10674000D2F800E0CBF81C000028A5D1A7E7002371
:10675000087891F801E0237439E70027BA46A9E6E2
:1067600031600D469B1A0B604FF0010AA2E62449E6
:10677000244A4FF48030C3F844034FF0010AC3F8B1
:1067800004034FF40030C1F8800142F001020860B8
:10679000C3F800A04FF43C60904788F800A030E7B1
:1067A000184BD2F80415C2F8401543F001034FF41A
:1067B0003C609847124B4FF40032C3F8002100238D
:1067C00089F8003005B0BDE8F08FCDE902320E4BFC
:1067D000DFF83CE001209860019B89F80000CEF8CA
:1067E00000C04FF43C609847D6F800C00749DDE987
:1067F0000232A4E72F465AE629460027B2E700BF37
:1068000000E100E03077020000100140202B002062
:106810003C2C00202DE9F047264CA37882B0002BB9
:106820003CD000283AD004293CD94369002B35D00C
:10683000437C0026012B81460DF107000CBF8846E2
:10684000B04617468A468DF8076000F073F8637803
:10685000A17822789DF807005D1CEDB2A94208BF1F
:106860003546AA4222D003EB430304EBC3030121C4
:10687000114AC3F808901971D2F804256570C3E96C
:10688000032AC3E9058700F07BF80C4B4FF4801214
:106890003046C3F8002102B0BDE8F087082002B0FE
:1068A000BDE8F087072002B0BDE8F08700F068F887
:1068B0000420F0E7202B00200010014000E100E060
:1068C000F0B51A4CA37883B04BB340B3436933B3EC
:1068D0000026067405460DF107008DF8076000F0EC
:1068E00029F86378A77821789DF807005A1CD2B25E
:1068F000974208BF3246914214D003EB430304EBA6
:10690000C30302219D601971627000F039F8084BD1
:106910004FF480123046C3F8002103B0F0BD0820C8
:1069200003B0F0BD00F02CF80420F6E7202B002087
:1069300000E100E070B4EFF3108472B60D4B9A687A
:10694000AAB90D490D4E01259D60D1F88050354002
:106950001D60C1F88060D1F884505D604FF0FF3356
:10696000C1F88430027004B962B670BC704701236C
:106970000370F8E7542D002000E100E0FC06FFBDA5
:10698000094B9A687AB170B910B4EFF3108172B6FE
:10699000064A1C6814605C685460986001B962B66D
:1069A0005DF8044B70477047542D002000E100E073
:1069B00001F01F024B09012100EB8300914000F020
:1069C00015B800BF01F01F0201234909934000EBF5
:1069D0008100D94300F016B84B0901F01F0150F8AF
:1069E0002300C84000F00100704700BF50E8003F9E
:1069F00043EA010240E8002C9CF0000FF6D110465B
:106A0000704700BF50E8003F03EA010240E8002C55
:106A10009CF0000FF6D11046704700BF01600B6874
:106A200043604A68934204BF00234360704700BF3D
:106A3000436843B1026891680B44436052689342D3
:106A400004BF00234360704730B4B84B1B78062B5B
:106A500020D0B74B1B68062B00F08180B54AD2F8D6
:106A6000883043F47003C2F88830BFF34F8FBFF310
:106A70006F8F4FF01023D3F80022002AC0F28681D6
:106A8000D3F80432002BC0F28181AB4BAB4A1A60C1
:106A900030BC7047AA4B1B681D07DAD1A94B1B6895
:106AA00003F0F002302A00F09B8003F0E003402B5B
:106AB00000F09680A34B1B6803F0F003302B00F02E
:106AC000A080A04B1B6803F0F002302A77D003F0BF
:106AD000E003402B73D09B4B1B6803F0F003302B7B
:106AE00000F01481974B1B6803F0F002302A52D05B
:106AF00003F0E003402B4ED0924B1B6803F0F003F1
:106B0000302B00F0F5808F4B1B6803F0F003302B27
:106B100000F0D7808B4B1B6803F0F003502B7ED026
:106B2000884B1B6803F0F002302A23D003F0E00307
:106B3000402B1FD0834B1B6803F0F002302A03D098
:106B400003F0E003402B84D14FF08043D3F80024BE
:106B5000D20744BF6FF00102C3F8002479E77A4BF3
:106B60001B68062B7FF47AAF784A136843F480637E
:106B7000136073E7764B6D4A1B681278754903F012
:106B80004F03062A0B607FF464AF6D4B1B68190737
:106B90007FF45FAFCEE7654A11784FF08043002263
:106BA0000629C3F80C21C3F81021C3F838257FF457
:106BB00050AF634B1B681B077FF44BAF9CE7664BE2
:106BC0005A4A1B6812786549C3F34233062A0B60A0
:106BD0007FF43FAF5A4B1B6819077FF43AAF7AE74F
:106BE0005F4B524A1B6812785E49C3F30423062A9E
:106BF0000B607FF42EAF524B1B681C077FF429AF4C
:106C000058E74A4B584A1B7858491160062B7FF4C5
:106C100020AF4B4B1B6818077FF41BAF51E74FF0B9
:106C20008052534BD2F80414C3F82015D2F808143C
:106C3000C3F82415D2F80C14C3F82815D2F8101490
:106C4000C3F82C15D2F81414C3F83015D2F8181460
:106C5000C3F83415D2F81C14C3F84015D2F8201428
:106C6000C3F84415D2F82414C3F84815D2F82814F0
:106C7000C3F84C15D2F82C14C3F85015D2F83014C0
:106C8000C3F85415D2F83414C3F86015D2F8381488
:106C9000C3F86415D2F83C14C3F86815D2F8401450
:106CA0002248C3F86C15D2F844140278C3F8701562
:106CB000062A7FF4CEAE224B1B6818077FF4C9AEBC
:106CC0002EE71A4B2B4C1B782B492C482C4A0525B8
:106CD000256001250D6000243F21062B0460116012
:106CE0007FF4B7AE164B1B681C077FF4B2AE11E7FA
:106CF0000E4B244A1B780321062B11607FF4A9AEAA
:106D00000F4B1B681D077FF4A4AEFCE61E4A074923
:106D1000D368097823F080730629D3607FF499AE95
:106D2000074B1B681A077FF494AEDBE6E00F00F018
:106D30003001001000ED00E0982A00200090D00300
:106D4000E40F00F0E80F00F0340100103C170040A1
:106D500058020010E40E0040440200103C050040C0
:106D6000240300104035014074C007400DF0ADBA57
:106D700000C00040105600408856004018560040A1
:106D800014560040A0050040F0ED00E0184A012331
:106D9000C2F80435D2F80034002BFBD04FF010239A
:106DA0001521134AC3F80012D2F80034002BFBD08F
:106DB0004FF0102315210E4AC3F80412D2F8003404
:106DC000002BFBD000230A49C2F80435D1F8003467
:106DD000002BFBD0BFF34F8F0649074BCA6802F464
:106DE000E0621343CB60BFF34F8F00BFFDE700BFEE
:106DF00000E0014000ED00E00400FA0510B568B9BC
:106E00000E4CA368012262703BB1D3E9002300203D
:106E1000A2609847A368002BF7D110BD0128FCD1D0
:106E2000064C2369A070002BF7D0D3E90023012082
:106E3000226198472369002BF7D110BD442C002014
:106E400070B910B5074CA368012262703BB1D3E959
:106E500000230020A2609847A368002BF7D110BD43
:106E6000704700BF442C002030B5012883B01DD0EE
:106E7000B0B1032812D1224C00F054F800230DF1D8
:106E800007008DF80730FFF755FDE368013BE3602D
:106E9000E5686DB39DF80700FFF772FD03B030BDE4
:106EA000184B0122C3F8802003B030BD144C0023DE
:106EB0000DF107008DF80730FFF73CFD237853B143
:106EC000E3689DF8070001330122E360A270FFF739
:106ED00057FD03B030BD0C486360A3602361E360DD
:106EE00000F014F800F05EFB30B101232370E7E7F7
:106EF00000F02AF8A570CDE700F014F8F5E700BF20
:106F0000442C002000E100E0FD6D0200044A1379EA
:106F100023B9012110609180184670478520704781
:106F2000582C0020074B1A68D20704D4C021012234
:106F300083F800131A604FF080430122C3F818252C
:106F4000704700BF00E100E0044B01221A604FF0DF
:106F50008042D2F81834DB03FBD470470C000040A9
:106F600010B5154B1A6882B062B10021134A19603E
:106F70001B68507900934FF080410123009CC1F8B9
:106F80000833A8B10E4B1A6882B100221A601B6840
:106F900001934FF080420221084B0198C2F8081378
:106FA0001B68012002B0BDE81040184702B010BDB8
:106FB000116853718847E5E700010040582C002014
:106FC0000401004030B56D4AD2F8043399058BB006
:106FD00066D5D2F82431002B62D00023C2F82431C8
:106FE000D2F8243103934FF40171654B0398C2F832
:106FF000081393F8291009B9012151605F49022251
:107000008DF81820D1F88024C1F880249869D968B7
:1070100009920022CDE90710C3E90622D3E9001442
:1070200006A8A047554AD2F81C31C3B1544B186A80
:107030005969884269D293F8280000F0FF040028BB
:1070400063D1C2F81C41D2F81C11029102999C68CC
:10705000186A196A205C01311962C2F81C05474A96
:10706000D2F84431D3B10021454BC2F84411D2F8D3
:10707000440193F829100090009800295AD19A6988
:1070800062B10022586AD9689A610122CDE90710DD
:107090008DF8182006A8D3E9001290470BB030BD38
:1070A000364AD2F804335B07BCD5D2F80831002B3E
:1070B000B8D0334B996900293FD00021C2F808119C
:1070C000D2F8081104910499D868596AD2F81825A1
:1070D00042545A6A996901325A625A6A8A42A1D163
:1070E000DA691968002A31D0D8685D6A1C699A612A
:1070F000079000220120DC60DA615A628DF81800E6
:1071000008955B6806A898478CE71C4A0020C2F8DF
:107110001C01D2F81C210192019A00299FD09A6883
:107120008DF8180008915861079206A8D3E900125B
:10713000904794E701211160A1E7C2F80811D2F845
:10714000080105900598D2F81825C6E793F829207C
:1071500012B90A4A01205060084A4FF40170C2F87F
:107160000803586ADA6808900024012007928DF815
:1071700018005A689C6106A8904753E70020004019
:10718000602C0020032807D8012A07D001291DD030
:107190004BB28BB1022908D007207047012912D0C9
:1071A00001294FF00002F3D110E00B4B00EB40003F
:1071B000034400205A707047074900EB4000014427
:1071C00018468A70704700F10E02D2B200EB4003FD
:1071D00001490020CA5470478C2C002010B5038848
:1071E000102B07D0112B04D1254B186801381860DB
:1071F00030B110BD224C216811B30131216010BDA6
:1072000001220221FFF7BEFF40B1072806D01D4B27
:107210001B68002BEDD0BDE8104018470722022163
:107220000120FFF7AFFF08B10728F0D10021084681
:107230000A22FFF7A7FF0028DBD00728E7D1D8E70D
:1072400001220846FFF79EFF38B1072805D00D4BF5
:107250001B6803B198472168CFE70722022101206C
:10726000FFF790FF08B10728F1D104220221002086
:10727000FFF788FF0028EED00728E8D1EBE700BF32
:107280009C2C0020982C0020002070472DE9F04114
:107290000388112B82B0044675D00BD9122B49D02C
:1072A000502B04D1714EC288F3899A427ED002B02D
:1072B000BDE8F081102BFAD1C37B012BF7D16C4DC7
:1072C00029884FF6FF72914240F0B280694F828860
:1072D000664E2A8003CFC5F80A00C5F80E10618AF1
:1072E0006F89F0894FF0000C8F4285F808C000F2DA
:1072F0009280AF898F42C0F08E80E989A78A40F2E0
:10730000F314A14294BF4C1A0C1BBC4200F28380C0
:1073100001F2F311B9427ED36B720028C7D17369B1
:10732000002BC4D00121ADF806208DF8041001A86F
:107330009847BCE74E4D82882B889342B7D141894C
:107340006889884258D8A889884255D3E989A48990
:1073500040F2F310814294BF481A081AA0424BD859
:1073600001F2F311A14247D3404A52694FF48071B0
:107370002981002A9BD00121ADF806308DF8041038
:1073800001A8904793E73A4D82882B889A428ED184
:107390006868FFF795FA18B1344B9B6903B19847B9
:1073A0004FF6FF732B8002B0BDE8F081038A022BF9
:1073B0007FF47DAF2E4DB0F804802F8847457FF4D1
:1073C00076AF123000F0EAF8002839D06B7A002B43
:1073D0003DD1D6E901132C7A68683A46002C18BFD3
:1073E0001946FFF717FA00283FF461AFB369002B85
:1073F0003FF45DAF98475AE71C4E2C7A6868D6E98F
:107400000113002C18BF194600236B72FFF702FA14
:107410000028EBD14BE700236B7200287FF447AFC5
:1074200068687168FFF7F6F900283FF440AFDDE7C0
:107430000E4B9B69002B3FF43AAF0420984736E788
:107440006868FFF73DFA00283FF431AFCEE7736973
:1074500000222A72002B3FF42AAF0122ADF80680E9
:107460008DF8042001A8984721E700BFA02C002038
:10747000BC2C0020D02C00202DE9F0470388878801
:10748000112B98B007D01A2B064650D0102B09D0DC
:1074900018B0BDE8F08739463948FFF793FA18B0BD
:1074A000BDE8F087374A9368DB430093516868462C
:1074B000FFF7A8FA009B0193019B83B300242546A4
:1074C000294601A8FFF788FA28B118AB03EB44035B
:1074D000013423F8285C0135142DF1D10D940DF100
:1074E000340CBCE80F0002AD0FC5BCE80F000FC59F
:1074F0009CE8070085E807008CB10DF10A08DFF869
:1075000098A008EB440438F8029F1F4D28464946CE
:107510000435FFF757FAAA45F8D1A045F3D1132F48
:1075200014D90420FEF70AFF18B0BDE8F087047AEA
:1075300016482409012C394618D9FFF739FA022CCC
:107540003946134816D0FFF733FAA1E739460C48FD
:10755000FFF72EFA39460C48FFF72AFAF37B012B86
:1075600096D039460B48FFF723FA91E7FFF72AFA3E
:1075700007483946FFF726FA18B0BDE8F08700BF84
:10758000E02C0020D82C0020DC2C0020E82C00204F
:10759000EC2C0020E42C0020502D0020007800F07E
:1075A00001007047014B1878704700BF502D002034
:1075B00000B583B068460849FFF730FA019B43B134
:1075C000D3E9002090476846FFF732FA019B002B71
:1075D000F6D103B05DF804FB3877020061DF704735
:1075E00030B5134DADF5017D4FF4FA740DF1020184
:1075F00003A8ADF80240FFF7F1FF88B9294601A8BA
:10760000FFF70CFA029B002BF0D0D3E9002103A86E
:10761000904701A8FFF70CFA029B002BF5D1E5E794
:10762000052801D0FEF78AFE0DF5017D30BD00BFB3
:1076300044770200024B1B780BB1FFF7D1BF7047B4
:10764000512D00204BDF704710B5114C84B001A8BC
:10765000FFF7F8FFA8B9214602A8FFF7DFF9039B5F
:10766000002BF4D0D3E900210198904702A8FFF73E
:10767000DFF9039B002BF5D101A8FFF7E3FF0028FA
:10768000E9D0052801D0FEF759FE04B010BD00BFB7
:107690005077020008B5074B044613B10021AFF341
:1076A0000080054B1868836A03B19847204600F0B4
:1076B00031F800BF000000005C77020070B50D4D8E
:1076C0000D4C641BA4100026A64209D10B4D0C4C96
:1076D00000F022F8641BA4100026A64205D170BD5C
:1076E00055F8043B98470136EEE755F8043B9847B8
:1076F0000136F2E7FC2A0020FC2A0020FC2A0020A8
:10770000002B002002440346934200D1704703F847
:10771000011BF9E7FEE700BFF8B500BFF8BC08BCE5
:107720009E467047F8B500BFF8BC08BC9E4670473F
:107730000338FDD8704700008C7702009C77020068
:1077400008000000647702007C7702000800000057
:107750007C77020084770200080000009C2A002049
:047760000000000025
:107764007974020000000000DD71020000000000D6
:087774008D720200000000000C
:08777C00416E02000000000054
:08778400696E02000000000024
:10778C00357602000000000049760200000000007F
:08779C00F0EAFF7F010000008C
:1077A4000090D00300000000000000000000000072
:1077B40000000000000000000000000000000000C5
:1077C40000000000000000000000000000000000B5
:1077D40000000000000000000000000000000000A5
:1077E4000000000000000000000000000000000095
:1077F4000000000000000000000000000000000085
:0C78040000000000696202004162020006
:040000032000630175
:00000001FF
