:020000022000DC
:106000000000012001630200296302002B630200EB
:106010002D6302002F6302003163020000000000C4
:1060200000000000000000000000000033630200D8
:10603000356302000000000037630200396302008C
:10604000616F02003B630200C56F02003B63020008
:106050003B6302003B6302003B6302003B630200C0
:106060003B6302003B6302003B6302003B630200B0
:106070003B6302003B6302003B6302003B630200A0
:106080003B630200916302003B6302003B6302003A
:10609000316402003B630200717602003B63020040
:1060A0003B6302003B6302003B6302003B63020070
:1060B0003B6302003B6302000000000000000000A0
:1060C0003B6302003B6302003B6302003B63020050
:1060D0003B6302003B6302003B63020000000000E0
:1060E00000000000000000000000000000000000B0
:1060F00000000000000000000000000000000000A0
:10610000000000000000000000000000000000008F
:10611000000000000000000000000000000000007F
:10612000000000000000000000000000000000006F
:10613000000000000000000000000000000000005F
:10614000000000000000000000000000000000004F
:10615000000000000000000000000000000000003F
:10616000000000000000000000000000000000002F
:10617000000000000000000000000000000000001F
:10618000000000000000000000000000000000000F
:1061900000000000000000000000000000000000FF
:1061A00000000000000000000000000000000000EF
:1061B00000000000000000000000000000000000DF
:1061C00000000000000000000000000000000000CF
:1061D00000000000000000000000000000000000BF
:1061E00000000000000000000000000000000000AF
:1061F000000000000000000000000000000000009F
:106200000348044B834202D0034B03B11847704745
:10621000082B0020082B002000000000054806493C
:10622000091A891001EBD171491002D0034B03B157
:1062300018477047082B0020082B002000000000A2
:1062400010B5064C237843B9FFF7DAFF044B13B1BE
:106250000448AFF300800123237010BD082B0020F9
:10626000000000004C89020008B5054B1BB1054930
:106270000548AFF30080BDE80840FFF7CFBF00BF7F
:10628000000000000C2B00204C890200154B002B55
:1062900008BF134B9D46A3F5803A00218B460F465D
:1062A0001348144A121A01F053FB0F4B002B00D075
:1062B00098470E4B002B00D0984700200021040087
:1062C0000D000D48002802D00C48AFF3008001F00B
:1062D0000DFB2000290001F035F801F0F3FA00BFB2
:1062E0000000080000000120000000000000000085
:1062F000082B00206C2D0020000000000000000092
:106300000649074A074B9B1A03DD043BC858D05087
:10631000FBDC00F099FBFFF7B9FF0000348A0200B4
:10632000982A0020082B0020FEE7FEE7FEE7FEE7A4
:10633000FEE7FEE7FEE7FEE7FEE7FEE700B585B015
:1063400000230390194601AA44F20100CDE901336C
:1063500000F004F805B05DF804FB00BF72B6094B0D
:106360001B68DB0700D500BEBFF34F8F0649074B04
:10637000CA6802F4E0621343CB60BFF34F8F00BFE3
:10638000FDE700BFF0ED00E000ED00E00400FA05DD
:10639000F8B52049204B0024C1F84041C1F84441E0
:1063A000C1F84841C1F84C41C1F80041C1F804416D
:1063B0001B6833B31948D1F8045501681A686D1A7F
:1063C00025F07F45AA4227460DD8197CDE69AD1A13
:1063D000144419B11F74D3E9052090471EB1334608
:1063E0001A68AA42F1D90E490E4A0B7812789A42DD
:1063F00008D00D490D4A41F823404FF48013C2F8EC
:106400000031F8BD531CDBB2022B08BF00230B7018
:10641000EFE700BF00100140442C0020402C00207A
:106420003D2C00203C2C0020342C002000E100E01A
:106430002DE9F04FB14AB24913780978B14E99422B
:1064400085B0356800F089810133DBB2022B08BFCB
:106450000023AD491370AD4AD1F800C052F8232093
:106460000CEB020323F07F430B60002D00F0C28190
:106470002B689A42C0F0C08100273846BE4603E030
:106480000B68934200F26C81EC68C5F800E0D21A08
:106490001844E9693CB10CEB000323F07F43C5E9E4
:1064A0000134EF612F460D460029E9D13160002506
:1064B0004FF0010A964B9749DFF86C9243F00103C5
:1064C00001934FF00008002F33D0D7E901BE3C46BE
:1064D000FF698D4B90481A68ABEB020323F07F43B2
:1064E000834200F201817344236000203268E0613E
:1064F000C4E9010001202074002A00F0F380106834
:10650000984208D3DFE0DEF800C0DC4580F0E08090
:1065100072465B466046D2F81CE0A3EB000BBEF16E
:10652000000FF0D1C4F800B0C4F81CE0D461002F13
:10653000CBD191F801E0087870454AD084460CEB45
:106540004C0C8B7801EBCC0C421CD0B283429CF8F3
:106550000430087004BF00200870022BDCF80840EB
:1065600025D0032B19D0012BE6D1237C002BE3D1BE
:10657000DCF80CB0C4F804B0DCF810E0C4F808E0B3
:10658000DCF81420E26099F80020DCF81800A06123
:10659000002A9ED063609B469BE73368002BCBD0DC
:1065A00000221A74DB69002BFBD13360C1E733682A
:1065B0005BB19C4200F0BA809B4602E0944261D0FD
:1065C0009346DBF81C20002AF8D100232374704581
:1065D000B4D13668B8F1000F01D1B5422CD086B3E2
:1065E000494A4E4B1468D3F80475DFF83881366891
:1065F00098F800203D1B25F07F450335002A00F068
:10660000B680AE422CBFA4196419444A24F07F44DA
:10661000C2F84045D2F80435DB1BE41B23F07F436E
:1066200024F07F440333A34200F2BA80002389F8A8
:10663000003005B0BDE8F08FBAF1000FF6D0002EA3
:10664000CED1364D364A324C4FF400314FF48033C0
:106650000127C2F880103C43C5F848334FF43C6032
:10666000C5F808336F60A047274BAF604FF43C601C
:106670001E60A0472B4B1E70002389F8003005B028
:10668000BDE8F08F5C4553D0E069D4F800E0CBF86A
:106690001C0000285BD09C4602687244026063457F
:1066A00018BF4FF001080023087891F801E0237427
:1066B0008DE7326800230120C4E90033A360E36161
:1066C00020747AB110683460C31A1360E261FAE68C
:1066D0006044C31ACEF80030C4F800B0C4F81CE01F
:1066E000D46124E73460EEE6A2EB0B0222F07F4295
:1066F0007245DED2AEEB02032360F6E63C2C0020AE
:106700003D2C0020442C0020402C0020342C002064
:10671000C0880200242B0020FEFF7F0000100140F3
:1067200000E100E0312C0020302C0020A34622465E
:10673000D3F81CC0C6F800C0BCF1000F45D0D0692A
:10674000D2F800E0CBF81C000028A5D1A7E7002371
:10675000087891F801E0237439E70027BA46A9E6E2
:1067600031600D469B1A0B604FF0010AA2E62449E6
:10677000244A4FF48030C3F844034FF0010AC3F8B1
:1067800004034FF40030C1F8800142F001020860B8
:10679000C3F800A04FF43C60904788F800A030E7B1
:1067A000184BD2F80415C2F8401543F001034FF41A
:1067B0003C609847124B4FF40032C3F8002100238D
:1067C00089F8003005B0BDE8F08FCDE902320E4BFC
:1067D000DFF83CE001209860019B89F80000CEF8CA
:1067E00000C04FF43C609847D6F800C00749DDE987
:1067F0000232A4E72F465AE629460027B2E700BF37
:1068000000E100E0C088020000100140242B0020BD
:10681000402C00202DE9F047264CA37882B0002BB5
:106820003CD000283AD004293CD94369002B35D00C
:10683000437C0026012B81460DF107000CBF8846E2
:10684000B04617468A468DF8076000F073F8637803
:10685000A17822789DF807005D1CEDB2A94208BF1F
:106860003546AA4222D003EB430304EBC3030121C4
:10687000114AC3F808901971D2F804256570C3E96C
:10688000032AC3E9058700F07BF80C4B4FF4801214
:106890003046C3F8002102B0BDE8F087082002B0FE
:1068A000BDE8F087072002B0BDE8F08700F068F887
:1068B0000420F0E7242B00200010014000E100E05C
:1068C000F0B51A4CA37883B04BB340B3436933B3EC
:1068D0000026067405460DF107008DF8076000F0EC
:1068E00029F86378A77821789DF807005A1CD2B25E
:1068F000974208BF3246914214D003EB430304EBA6
:10690000C30302219D601971627000F039F8084BD1
:106910004FF480123046C3F8002103B0F0BD0820C8
:1069200003B0F0BD00F02CF80420F6E7242B002083
:1069300000E100E070B4EFF3108472B60D4B9A687A
:10694000AAB90D490D4E01259D60D1F88050354002
:106950001D60C1F88060D1F884505D604FF0FF3356
:10696000C1F88430027004B962B670BC704701236C
:106970000370F8E75C2D002000E100E0FC06FFBD9D
:10698000094B9A687AB170B910B4EFF3108172B6FE
:10699000064A1C6814605C685460986001B962B66D
:1069A0005DF8044B704770475C2D002000E100E06B
:1069B00001F01F024B09012100EB8300914000F020
:1069C00015B800BF01F01F0201234909934000EBF5
:1069D0008100D94300F016B84B0901F01F0150F8AF
:1069E0002300C84000F00100704700BF50E8003F9E
:1069F00043EA010240E8002C9CF0000FF6D110465B
:106A0000704700BF50E8003F03EA010240E8002C55
:106A10009CF0000FF6D11046704700BF01600B6874
:106A200043604A68934204BF00234360704700BF3D
:106A3000436843B1026891680B44436052689342D3
:106A400004BF00234360704730B4B84B1B78062B5B
:106A500020D0B74B1B68062B00F08180B54AD2F8D6
:106A6000883043F47003C2F88830BFF34F8FBFF310
:106A70006F8F4FF01023D3F80022002AC0F28681D6
:106A8000D3F80432002BC0F28181AB4BAB4A1A60C1
:106A900030BC7047AA4B1B681D07DAD1A94B1B6895
:106AA00003F0F002302A00F09B8003F0E003402B5B
:106AB00000F09680A34B1B6803F0F003302B00F02E
:106AC000A080A04B1B6803F0F002302A77D003F0BF
:106AD000E003402B73D09B4B1B6803F0F003302B7B
:106AE00000F01481974B1B6803F0F002302A52D05B
:106AF00003F0E003402B4ED0924B1B6803F0F003F1
:106B0000302B00F0F5808F4B1B6803F0F003302B27
:106B100000F0D7808B4B1B6803F0F003502B7ED026
:106B2000884B1B6803F0F002302A23D003F0E00307
:106B3000402B1FD0834B1B6803F0F002302A03D098
:106B400003F0E003402B84D14FF08043D3F80024BE
:106B5000D20744BF6FF00102C3F8002479E77A4BF3
:106B60001B68062B7FF47AAF784A136843F480637E
:106B7000136073E7764B6D4A1B681278754903F012
:106B80004F03062A0B607FF464AF6D4B1B68190737
:106B90007FF45FAFCEE7654A11784FF08043002263
:106BA0000629C3F80C21C3F81021C3F838257FF457
:106BB00050AF634B1B681B077FF44BAF9CE7664BE2
:106BC0005A4A1B6812786549C3F34233062A0B60A0
:106BD0007FF43FAF5A4B1B6819077FF43AAF7AE74F
:106BE0005F4B524A1B6812785E49C3F30423062A9E
:106BF0000B607FF42EAF524B1B681C077FF429AF4C
:106C000058E74A4B584A1B7858491160062B7FF4C5
:106C100020AF4B4B1B6818077FF41BAF51E74FF0B9
:106C20008052534BD2F80414C3F82015D2F808143C
:106C3000C3F82415D2F80C14C3F82815D2F8101490
:106C4000C3F82C15D2F81414C3F83015D2F8181460
:106C5000C3F83415D2F81C14C3F84015D2F8201428
:106C6000C3F84415D2F82414C3F84815D2F82814F0
:106C7000C3F84C15D2F82C14C3F85015D2F83014C0
:106C8000C3F85415D2F83414C3F86015D2F8381488
:106C9000C3F86415D2F83C14C3F86815D2F8401450
:106CA0002248C3F86C15D2F844140278C3F8701562
:106CB000062A7FF4CEAE224B1B6818077FF4C9AEBC
:106CC0002EE71A4B2B4C1B782B492C482C4A0525B8
:106CD000256001250D6000243F21062B0460116012
:106CE0007FF4B7AE164B1B681C077FF4B2AE11E7FA
:106CF0000E4B244A1B780321062B11607FF4A9AEAA
:106D00000F4B1B681D077FF4A4AEFCE61E4A074923
:106D1000D368097823F080730629D3607FF499AE95
:106D2000074B1B681A077FF494AEDBE6E00F00F018
:106D30003001001000ED00E0982A00200090D00300
:106D4000E40F00F0E80F00F0340100103C170040A1
:106D500058020010E40E0040440200103C050040C0
:106D6000240300104035014074C007400DF0ADBA57
:106D700000C00040105600408856004018560040A1
:106D800014560040A0050040F0ED00E0184A012331
:106D9000C2F80435D2F80034002BFBD04FF010239A
:106DA0001521134AC3F80012D2F80034002BFBD08F
:106DB0004FF0102315210E4AC3F80412D2F8003404
:106DC000002BFBD000230A49C2F80435D1F8003467
:106DD000002BFBD0BFF34F8F0649074BCA6802F464
:106DE000E0621343CB60BFF34F8F00BFFDE700BFEE
:106DF00000E0014000ED00E00400FA0510B568B9BC
:106E00000E4CA368012262703BB1D3E9002300203D
:106E1000A2609847A368002BF7D110BD0128FCD1D0
:106E2000064C2369A070002BF7D0D3E90023012082
:106E3000226198472369002BF7D110BD482C002010
:106E400070B910B5074CA368012262703BB1D3E959
:106E500000230020A2609847A368002BF7D110BD43
:106E6000704700BF482C002030B5012883B01DD0EA
:106E7000B0B1032812D1224C00F054F800230DF1D8
:106E800007008DF80730FFF755FDE368013BE3602D
:106E9000E5686DB39DF80700FFF772FD03B030BDE4
:106EA000184B0122C3F8802003B030BD144C0023DE
:106EB0000DF107008DF80730FFF73CFD237853B143
:106EC000E3689DF8070001330122E360A270FFF739
:106ED00057FD03B030BD0C486360A3602361E360DD
:106EE00000F014F800F0BEFB30B101232370E7E797
:106EF00000F02AF8A570CDE700F014F8F5E700BF20
:106F0000482C002000E100E0FD6D0200044A1379E6
:106F100023B9012110609180184670478520704781
:106F20005C2C0020074B1A68D20704D4C021012230
:106F300083F800131A604FF080430122C3F818252C
:106F4000704700BF00E100E0044B01221A604FF0DF
:106F50008042D2F81834DB03FBD470470C000040A9
:106F600010B5154B1A6882B062B10021134A19603E
:106F70001B68507900934FF080410123009CC1F8B9
:106F80000833A8B10E4B1A6882B100221A601B6840
:106F900001934FF080420221084B0198C2F8081378
:106FA0001B68012002B0BDE81040184702B010BDB8
:106FB000116853718847E5E7000100405C2C002010
:106FC0000401004030B56D4AD2F8043399058BB006
:106FD00066D5D2F82431002B62D00023C2F82431C8
:106FE000D2F8243103934FF40171654B0398C2F832
:106FF000081393F8291009B9012151605F49022251
:107000008DF81820D1F88024C1F880249869D968B7
:1070100009920022CDE90710C3E90622D3E9001442
:1070200006A8A047554AD2F81C31C3B1544B186A80
:107030005969884269D293F8280000F0FF040028BB
:1070400063D1C2F81C41D2F81C11029102999C68CC
:10705000186A196A205C01311962C2F81C05474A96
:10706000D2F84431D3B10021454BC2F84411D2F8D3
:10707000440193F829100090009800295AD19A6988
:1070800062B10022586AD9689A610122CDE90710DD
:107090008DF8182006A8D3E9001290470BB030BD38
:1070A000364AD2F804335B07BCD5D2F80831002B3E
:1070B000B8D0334B996900293FD00021C2F808119C
:1070C000D2F8081104910499D868596AD2F81825A1
:1070D00042545A6A996901325A625A6A8A42A1D163
:1070E000DA691968002A31D0D8685D6A1C699A612A
:1070F000079000220120DC60DA615A628DF81800E6
:1071000008955B6806A898478CE71C4A0020C2F8DF
:107110001C01D2F81C210192019A00299FD09A6883
:107120008DF8180008915861079206A8D3E900125B
:10713000904794E701211160A1E7C2F80811D2F845
:10714000080105900598D2F81825C6E793F829207C
:1071500012B90A4A01205060084A4FF40170C2F87F
:107160000803586ADA6808900024012007928DF815
:1071700018005A689C6106A8904753E70020004019
:10718000642C0020032807D8012A07D001291DD02C
:107190004BB28BB1022908D007207047012912D0C9
:1071A00001294FF00002F3D110E00B4B00EB40003F
:1071B000034400205A707047074900EB4000014427
:1071C00018468A70704700F10E02D2B200EB4003FD
:1071D00001490020CA547047902C002010B5038844
:1071E000102B07D0112B04D1254B186801381860DB
:1071F00030B110BD224C216811B30131216010BDA6
:1072000001220221FFF7BEFF40B1072806D01D4B27
:107210001B68002BEDD0BDE8104018470722022163
:107220000120FFF7AFFF08B10728F0D10021084681
:107230000A22FFF7A7FF0028DBD00728E7D1D8E70D
:1072400001220846FFF79EFF38B1072805D00D4BF5
:107250001B6803B198472168CFE70722022101206C
:10726000FFF790FF08B10728F1D104220221002086
:10727000FFF788FF0028EED00728E8D1EBE700BF32
:10728000A02C00209C2C002038B54FF4E131274879
:1072900000F060FA2649254800F0C2FA2549234843
:1072A00000F0BEFA0121172000F0F4FA01211720A6
:1072B00000F0FCFA0121182000F0ECFA012118205E
:1072C00000F0F4FA4FF0804201231360D2F800314D
:1072D000002BFBD0012393604FF08042D2F80431A1
:1072E000002BFBD0144B1548154901224FF00064C8
:1072F0000025C0F880405A60DA60C3F804550325C1
:10730000C3F808550925C3F8105547F61225C3F8E8
:1073100040554FF48035C3F80453C3F8002204608D
:107320001A600248BDE8384000F07ABA582D0020B3
:10733000C8880200E488020000B0014000E100E0DB
:10734000FC88020008B5FFF79FFFFEE72DE9F0413A
:107350000388112B82B0044675D00BD9122B49D06B
:10736000502B04D1714EC288F3899A427ED002B06C
:10737000BDE8F081102BFAD1C37B012BF7D16C4D06
:1073800029884FF6FF72914240F0B280694F82889F
:10739000664E2A8003CFC5F80A00C5F80E10618A30
:1073A0006F89F0894FF0000C8F4285F808C000F219
:1073B0009280AF898F42C0F08E80E989A78A40F21F
:1073C000F314A14294BF4C1A0C1BBC4200F2838000
:1073D00001F2F311B9427ED36B720028C7D17369F1
:1073E000002BC4D00121ADF806208DF8041001A8AF
:1073F0009847BCE74E4D82882B889342B7D141898C
:107400006889884258D8A889884255D3E989A489CF
:1074100040F2F310814294BF481A081AA0424BD898
:1074200001F2F311A14247D3404A52694FF48071EF
:107430002981002A9BD00121ADF806308DF8041077
:1074400001A8904793E73A4D82882B889A428ED1C3
:107450006868FFF735FA18B1344B9B6903B1984758
:107460004FF6FF732B8002B0BDE8F081038A022B38
:107470007FF47DAF2E4DB0F804802F8847457FF410
:1074800076AF123000F0EAF8002839D06B7A002B82
:107490003DD1D6E901132C7A68683A46002C18BF12
:1074A0001946FFF7B7F900283FF461AFB369002B25
:1074B0003FF45DAF98475AE71C4E2C7A6868D6E9CE
:1074C0000113002C18BF194600236B72FFF7A2F9B5
:1074D0000028EBD14BE700236B7200287FF447AF05
:1074E00068687168FFF796F900283FF440AFDDE760
:1074F0000E4B9B69002B3FF43AAF0420984736E7C8
:107500006868FFF7DDF900283FF431AFCEE7736913
:1075100000222A72002B3FF42AAF0122ADF8068028
:107520008DF8042001A8984721E700BFA42C002073
:10753000C02C0020D42C00202DE9F0470388878838
:10754000112B98B007D01A2B064650D0102B09D01B
:1075500018B0BDE8F08739463948FFF733FA18B05C
:10756000BDE8F087374A9368DB430093516868466B
:10757000FFF748FA009B0193019B83B30024254643
:10758000294601A8FFF728FA28B118AB03EB4403FA
:10759000013423F8285C0135142DF1D10D940DF13F
:1075A000340CBCE80F0002AD0FC5BCE80F000FC5DE
:1075B0009CE8070085E807008CB10DF10A08DFF8A8
:1075C00098A008EB440438F8029F1F4D284649460E
:1075D0000435FFF7F7F9AA45F8D1A045F3D1132FE9
:1075E00014D90420FEF7AAFE18B0BDE8F087047A8B
:1075F00016482409012C394618D9FFF7D9F9022C6D
:107600003946134816D0FFF7D3F9A1E739460C489D
:10761000FFF7CEF939460C48FFF7CAF9F37B012B87
:1076200096D039460B48FFF7C3F991E7FFF7CAF93F
:1076300007483946FFF7C6F918B0BDE8F08700BF24
:10764000E42C0020DC2C0020E02C0020EC2C00207E
:10765000F02C0020E82C0020542D0020007800F0B1
:1076600001007047014B1878704700BF542D00206F
:1076700000B583B068460849FFF7D0F9019B43B1D4
:10768000D3E9002090476846FFF7D2F9019B002B11
:10769000F6D103B05DF804FB2489020061DF704776
:1076A00030B5134DADF5017D4FF4FA740DF10201C3
:1076B00003A8ADF80240FFF7F1FF88B9294601A8F9
:1076C000FFF7ACF9029B002BF0D0D3E9002103A80F
:1076D000904701A8FFF7ACF9029B002BF5D1E5E735
:1076E000052801D0FEF72AFE0DF5017D30BD00BF53
:1076F00030890200024B1B780BB1FFF7D1BF7047F6
:10770000552D00204BDF704710B5114C84B001A8F7
:10771000FFF7F8FFA8B9214602A8FFF77FF9039BFE
:10772000002BF4D0D3E900210198904702A8FFF77D
:107730007FF9039B002BF5D101A8FFF7E3FF002899
:10774000E9D0052801D0FEF7F9FD04B010BD00BF57
:107750003C890200284B08200622B1F5614F10B485
:10776000C3F81405C3F80C253DD021D9B1F5613F0C
:107770003DD016D9B1F5E12F25D0B1F5612F20D13B
:107780001E4AC3F824251C4B1D4900240122042055
:10779000C3F86C45C3F800051A600A605DF8044B35
:1077A0007047B1F5E13F0CD1164AC3F82425EAE74A
:1077B000B1F5964F0BD0B1F5164F0CD0B1F5165F61
:1077C0000DD00D4BF0E7104AC3F82425DBE70F4A34
:1077D000C3F82425D7E70E4AC3F82425D3E70D4A7A
:1077E000C3F82425CFE70C4AC3F82425CBE70B4A7E
:1077F000C3F82425C7E700BF0020004000D0BE0E1C
:107800000820004000E0D70100705F0700A04E0094
:1078100000509D000050270000F0EB0000B0AF03C7
:1078200070B5084684B00D4600F09AF880B288B171
:107830000024164E164A21462B5DC6F81C351368E7
:10784000002BFCD01160013413680193E4B2844230
:10785000019BF1DB0D4B0E4A0A21C3F81C1513687E
:10786000002BFCD0002313601268084B02920D21FC
:10787000074A0298C3F81C151368002BFCD000239C
:10788000136013680393039B04B070BD0020004095
:107890001C21004000F5E0704FF0A04319B1032215
:1078A00043F82020704743F820107047012303FA63
:1078B00000F04FF0A04311B1C3F808057047C3F8BA
:1078C0000C05704708B5074B044613B10021AFF310
:1078D0000080054B1868836A03B19847204600F082
:1078E00047F800BF000000004889020070B50D4D48
:1078F0000D4C641BA4100026A64209D10B4D0C4C64
:1079000000F0D2FF641BA4100026A64205D170BD72
:1079100055F8043B98470136EEE755F8043B984785
:107920000136F2E7002B0020002B0020002B002066
:10793000042B00200A44914200F1FF3300D170472C
:1079400010B511F8014B03F8014F9142F9D110BD68
:1079500002440346934200D1704703F8011BF9E744
:10796000034613F8012B002AFBD1181A013870477F
:10797000FEE700BF03685A004CBF43F0004323F00A
:1079800000431844704700BF69B32DE9F04701F187
:10799000FF3917460646C8464FF0000A0AEB0804AE
:1079A00004EBD4746410E50071190846FFF7E2FF98
:1079B000A145034605F10800304409D0BB4209D86F
:1079C000FFF7D8FF0138B8420AD204F1010AE5E70F
:1079D000BB4205D9A24502D004F1FF38DEE7002101
:1079E0000846BDE8F0870846704700BF012807D069
:1079F000022807D0044B00280CBF1846002070470F
:107A00000248704702487047B5800200BD800200FE
:107A1000C580020030B5244B83B004468D1E4BB3A5
:107A200001A92846AFF30080F0B101992A46FFF77B
:107A3000ABFF0146C0B1FFF79DFF4B68A064012B6F
:107A40002ED0002B01F1040026DBFFF793FF00236B
:107A5000C4E913030368002B12DBFFF78BFF00233D
:107A60002061184603B030BD002323610923184666
:107A700003B030BD0D490E48091AC9100191D5E770
:107A8000C3F30360FFF7B2FF002814BF00230923EC
:107A90002061184603B030BD0123C4E91303D9E7C0
:107AA000002323610523DCE700000000348A020084
:107AB000948902000368DA0710B5044606D49B07D0
:107AC00000F1480009D500F051FC2368590709D599
:107AD0001A070ED5DB0613D510BD00F03FFC236856
:107AE0005907F5D404F1D00000F048FC23681A07C8
:107AF000F0D404F5A87000F049FC2368DB06EBD451
:107B000004F5E870BDE8104000F084BC036803B1E0
:107B100003441846704700BF704700BF70B5044665
:107B20000D46296C2046FFF775FF064688B92B6C79
:107B300063612A4623692146012098470828F0D02E
:107B4000072806D13046296CFFF7E6FF281D00F014
:107B5000F9FB00F04DFE00BF2DE9F0470C1D054676
:107B600017460FCCADF5727D03AE0FC60FCC0FC616
:107B70000FCC0FC694E80F0002ACD5F80C80D5F8F6
:107B8000189086E80F0000232846216C2360FFF739
:107B900041FF002F064614BF0A27092746BB236C66
:107BA0006B614FF4F07221467AA8FFF7C3FE2B6990
:107BB0007AAA294638469847889B8246CDE90049EB
:107BC000394663642A462B460120C047D8B94FF492
:107BD000F0727AA92046FFF7ADFEBAF1080F18D16E
:107BE000216C2846FFF716FF06460927002ED6D03F
:107BF000A36B47F01001CDE900492A4663640120D8
:107C00002B46C04700B1092630460DF5727DBDE810
:107C1000F087BAF1070FF6D13046216CFFF77CFFF1
:107C200003A800F08FFB00BFF0B5CB6B0B640E1DFB
:107C30000F4604460FCEF9B001AD0FC50FCE0FC5EC
:107C40000FCE0FC596E80F004FF0FF3685E80F0006
:107C5000009606E023696A462146984708280546AB
:107C600008D110992046FFF7D5FE0028F2D0092050
:107C700079B0F0BD6846FFF71DFF062DF7D13946F4
:107C80002046FFF74BFF00BF30B4DD6BC16082615F
:107C900019461D64002230BCFFF75EBF70B5C66890
:107CA00043690B64AEB903690A4604460D460146B2
:107CB00002209847072805D008280FD129462046DA
:107CC000FFF72CFF3046296CFFF726FF281D00F038
:107CD00039FB0122FFF740FF00F08AFD00F088FD2C
:107CE000C26822B1CA6B0A640022FFF735BFFFF7F2
:107CF0009BBF00BF042910D8DFE801F005030F0384
:107D000003000120704743B90F2A06D800EB820216
:107D100018465368009A136070470220704700BFEE
:107D200010B584B0002303AC0A4600941946FFF74F
:107D3000E1FF039804B010BD042910D8DFE801F07A
:107D400005030F0303000120704743B90F2A06D82B
:107D500000EB8200009A12684260184670470220C9
:107D6000704700BF10B584B0002303AC03920094A9
:107D70000A461946FFF7E0FF04B010BDF0B5D36B1B
:107D80001364151D07460E460FCDADF50F7D17ACDC
:107D90000FC40FCD0FC40FCD0FC495E80F004FF0E7
:107DA000FF3584E80F00169510E016A8FFF7DAFFFC
:107DB000314616A8B84716AA694678B9049B082028
:107DC0009847052804460AD0092807D0269968460E
:107DD000FFF720FE6A460C210028E6D0092416A8E9
:107DE000FFF768FE20460DF50F7DF0BD2DE9F04F41
:107DF000CC6C89B00D4654F8041B0694174600F06D
:107E000003081E46002B61D00B0CDAB209048DF872
:107E10001D30022304EB820405918DF81C302B6D7C
:107E2000B8F1020F08BFAC6B13F0010378D10193D6
:107E300000F008030293D4F800A0BAF1000F00F09C
:107E40001B81022E3ED0B4F800A0B4F80290043496
:107E5000AA6C29F0010B0F2138469344FFF760FF0D
:107E600083452DD82AF001025A44824294BF002053
:107E700001204FEA490303F002030AF0010A43EA32
:107E80000A03012B30D03BB3022B15D1236823F01A
:107E9000004BB8F1000F4DD130B1029A002A6DD0DD
:107EA000BBF1000F00F0A080002B00DA04340BF1CE
:107EB000010B04EB8B04BEE7092009B0BDE8F08F8D
:107EC0000020D6E7D4F804900834C1E70902032360
:107ED0000591ADF81C30A2E7B8F1000F02D00028E0
:107EE00040F09D800434A6E7B8F1000F2CD1A8B172
:107EF000D4E90023991C4FEAD272DDD005F1580174
:107F00000133049100F09E80201DFFF7FFFD04ABBC
:107F100001462846AFF3008000286FD108348AE775
:107F2000384605A900F000FB0028C5D1082009B09B
:107F3000BDE8F08F0D213846D5F82090FFF7F0FE10
:107F4000814540D02368AFE70D213846D5F8209011
:107F5000FFF7E6FE8145E1D1AB6A9C42DED12046C7
:107F6000FFF708FD0F2102463846FFF7FBFE3846B3
:107F70002A460021FFF7F6FE07209EE7BBF1000F1F
:107F800032D005F15803CDF80C8004F10409B04655
:107F9000DDF808A01E4601E0DA4525D048460496E3
:107FA000FFF7B4FD04AB014600222846AFF3008082
:107FB0000AF1010A09F104090028EDD046462368B8
:107FC000DDF80C8070E7AB6A9C42BBD104224FF015
:107FD0000009A318C5E90AB9C5E90C2323684B4574
:107FE00038DB0123019362E738460D21FFF798FE45
:107FF000049B2862C5E9093406205EE781460D210D
:108000003846FFF78DFEB9F1020F28621FD12B46CB
:10801000049A43F82C2F6B62AC6206204DE7204691
:10802000FFF7A8FC04340646AC632846AFF3008093
:1080300000283FF441AF384632460F21FFF792FE49
:1080400007203AE738460D21FFF76AFE2862049BB5
:108050006B62E1E70BF1010004EB8000FFF78AFCA3
:108060000F2102463846FFF77DFE38462A4649462C
:10807000FFF778FE072020E705A9384600F054FAFC
:1080800000287FF419AF019B002B3FF44FAF0F2165
:108090003846FFF745FE0E2102463846FFF762FEDE
:1080A0003846034A0F21FFF75DFE072005E700BFB2
:1080B000000000000023FFF799BE00BF0123FFF777
:1080C00095BE00BF0223FFF791BE00BF2DE9F0412E
:1080D0000546C4B0042900F2B380DFE801F09551F1
:1080E000B12B0300002B40F0AB80102A00F2A880D7
:1080F0002B68DC0600F1FA8022AC2046019200F0E9
:1081000093F9AE6B019A0023012707FA03F111429C
:10811000304604D050F8041B44F8231006460133BF
:10812000042BF2D12046AE6300F074F9002044B075
:10813000BDE8F081032B40F08380160C97B2F31951
:10814000102B7DD82B681A0700F1DA8022AC20466C
:1081500000F03EF904EBC600A96B4FB10346FA00EC
:108160001044CE1A9F5943F8047B8342FAD111443C
:108170002046A96300F00AF9002044B0BDE8F08170
:10818000012B4FEA12461FFA82F855D0052B57D122
:1081900006EB0807202F53D80F2E55D94746B8F1C4
:1081A000000F64D14046A96BB8F1000F00F0B78012
:1081B000002722AC04EBC604043C01EBC00251F8DA
:1081C000040B44F8040F9142F9D17FB102AC102E98
:1081D000304638BF102004EBC000843802EBC701E2
:1081E00052F8044B40F8044F9142F9D1012B00F0B2
:1081F0008F800F2EA96365D917B102A800F0BEF8D1
:10820000002044B0BDE8F081D3B9AC6B97B2012631
:1082100005F1040C06FA03F13942204604D050F867
:10822000041B4CF8231004460133102BF2D112F436
:108230000050E5D1AC6304E006EB0802102A28D90F
:10824000022044B0BDE8F081102F6AD9103F2A689F
:10825000D0070AD5284622F0010242F0020240F877
:10826000482B019300F086F8019B002F5BD02A6811
:10827000510731D40F2E29D902AC2046019300F0CA
:1082800081F8C6F110000028A96B019B91DC0A4619
:108290009DE70F2ED4D82A68D10708D5284622F0AA
:1082A000030240F8482B019300F05CF8019B019316
:1082B00022AC204600F056F84046A96B019B40B323
:1082C000002777E722A800F051F895E722A801934C
:1082D00000F050F8019BCFE7284622F0040240F856
:1082E000D02B019300F04EF8019BC3E723F010035D
:1082F0002B6005F5E870019200F096F8019AFBE614
:1083000023F008032B6005F5A87000F061F81DE765
:1083100022AC0431A963204600F020F870E74746FC
:1083200067E7002793E70F2E3FF63CAF22AC2046CD
:10833000019300F01FF84046A96B019B00287FF4D1
:1083400039AF56E700F1340191E838009C46A64663
:108350004CF8045D90E8FF0FE54600BD90EC210B62
:10836000704700BF80EC210B704700BF90EC200BE2
:10837000704700BF80EC200B704700BFD0EC200B93
:10838000704700BFC0EC200B704700BFF0EC02014B
:10839000F0EC0211F0EC0221F0EC0231F0EC0241C1
:1083A000F0EC0251F0EC0261F0EC0271F0EC0281B1
:1083B000F0EC0291F0EC02A1F0EC02B1F0EC02C1A1
:1083C000F0EC02D1F0EC02E1F0EC02F1704700BFFA
:1083D000E0EC0201E0EC0211E0EC0221E0EC023101
:1083E000E0EC0241E0EC0251E0EC0261E0EC0271F1
:1083F000E0EC0281E0EC0291E0EC02A1E0EC02B1E1
:10840000E0EC02C1E0EC02D1E0EC02E1E0EC02F1D0
:10841000704700BFB0FC0181B0FC0191B0FC01A12C
:10842000B0FC01B1704700BFA0FC0181A0FC01912C
:10843000A0FC01A1A0FC01B1704700BFEC4600B553
:108440002DE900502DE9FF1F4FF000032DE90C002E
:1084500001A9FFF7E9FBDDF840E012B0704700BF6B
:10846000EC4600B52DE900502DE9FF1F4FF0000349
:108470002DE90C0001A9FFF711FCDDF840E012B076
:10848000704700BFEC4600B52DE900502DE9FF1FF5
:108490004FF000032DE90C0001A9FFF721FCDDF8E6
:1084A00040E012B0704700BFEC4600B52DE9005027
:1084B0002DE9FF1F4FF000032DE90C0001ABFFF782
:1084C000E3FBDDF840E012B0704700BFEC4600B5BA
:1084D0002DE900502DE9FF1F4FF000032DE90C009E
:1084E00001AAFFF74BFCDDF840E012B0704700BF77
:1084F000027A82B9437AABB14268013B10B443724D
:1085000013680321141D01721A02446002605DF8B1
:10851000044B180E70470368013A02721A02026097
:10852000180E7047B02070472DE9F043054685B01E
:108530000E464FF000083046FFF7DAFFB028044639
:1085400000F0B280070620D500F0F003802B4DD05C
:10855000902B36D0A02B60D0B02B74D0C02B00F065
:108560008B8000F0F803D02B0BD100F00702013212
:1085700042F40022052301212846FFF7A7FD002829
:10858000D9D0092005B0BDE8F0830DF10C09002316
:1085900019468700CDF800900D222846FFF7AAFB68
:1085A000FFB2039BCDF80090043760064CBFDF1B81
:1085B000FF18002319460D2228460397FFF7BCFB3E
:1085C000B9E700F00D030D2BDBD003AF002300F063
:1085D0000F02194600972846FFF78CFB00230097EF
:1085E00019460D222846FFF7A7FBA4E73046FFF700
:1085F0007FFF24020443B4F5004FC2D024010023BE
:10860000A2B219462846FFF761FD0028B9D114F43B
:10861000004F18BF4FF001088DE7C24302F0070377
:108620004FF47F621A41010702F47F624FF00003AA
:1086300048BF42F4804219462846FFF747FD00280C
:108640003FF479AF9DE7B12833D0B22800F0A08085
:10865000B32841D000F0FC03B42B92D000F0070205
:108660000132012342F4002219462846FFF72EFD6D
:1086700000283FF460AF84E7C62851D0C7285AD0FD
:1086800000F0F803C02B69D0C82875D0C9287FF442
:1086900078AF3046FFF72CFF020300F00F0002F422
:1086A00070220130024365E7B8F1000F27D00020A7
:1086B00068E73046FFF71CFF00283FF462AF10F078
:1086C000F0037FF45EAF024619462846FFF7FEFC32
:1086D00000283FF430AF54E73046FFF709FF0103AD
:1086E00000F00F0001F47021421C01230A432846C8
:1086F0001946FFF7EBFC00283FF41DAF41E703AC40
:1087000043460E22414600942846FFF7F3FA0094B0
:10871000284643460F224146FFF70EFB404631E70D
:108720003046FFF7E5FE010300F00F0001F4702171
:10873000421C0323DAE73046FFF7DAFE00283FF455
:1087400020AF10F0F0037FF41CAF0246042128464E
:10875000FFF7BCFC00283FF4EEAE12E700F00F027A
:108760000132032342F4202219462846FFF7AEFCCB
:1087700000283FF4E0AE04E73046FFF7B9FE00F012
:10878000F00200F00F031032013343EA0232F1E647
:1087900000230DF10C090D221946CDF80090284652
:1087A000FFF7A8FA3046FFF7A3FE02064FF00207D4
:1087B0000CD5039B00F07F00B84003443046039380
:1087C000FFF796FE030607F10707F2D4039BCDF8E7
:1087D000009000F07F0403F50172BC4000231444B4
:1087E00019460D2228460394FFF7A6FAA3E600BF18
:1087F00008B5062000F02CF80120FFF7B9F81F2972
:1088000038B504460D4604D9162303604FF0FF30F7
:1088100038BD426C12B152F821304BB9204600F0FD
:1088200031F82A4601462046BDE8384000F018B825
:10883000012B0AD0591C03D1162303600120E7E75E
:10884000002442F82540284698470020E0E7000031
:10885000024B01461868FFF7D2BF00BF9C2A0020D8
:1088600038B5074C0023054608461146236000F042
:1088700013F8431C02D1236803B12B6038BD00BF3D
:10888000682D002000F000B8024B58221A604FF00B
:10889000FF307047682D0020024B58221A604FF0BD
:1088A000FF307047682D0020F8B500BFF8BC08BC49
:1088B0009E467047F8B500BFF8BC08BC9E4670479E
:1088C0000338FDD870470000203E3E3E20526F76B0
:1088D000657264796E20414852532076312E3030D3
:1088E0002E303000203E3E3E20496E697469616C36
:1088F000697A65204465766963650000203E3E3EE6
:108900002044657669636520496E697469616C69A4
:108910007A6174696F6E20436F6D706C6574656405
:108920000000000078890200888902000800000029
:10893000508902006889020008000000688902006E
:108940007089020008000000A02A0020000000003A
:108950003975020000000000DD7102000000000017
:088960004D730200000000004D
:08896800416E02000000000056
:08897000696E02000000000026
:10897800F576020000000000097702000000000000
:0C89880008B10181B0B0008400000000C4
:10899400F8D8FF7F01000000ECE8FF7FA908B18050
:1089A400A0E9FF7FE0FFFF7FA0E9FF7F0100000057
:1089B40060F0FF7FB0A90280F8F0FF7FB0B0A8801C
:1089C40048F1FF7F0100000050F1FF7FB0B0AA80A2
:1089D40084F1FF7FAE71B2804CF2FF7FAB3F3880F1
:1089E400A4F2FF7F01000000B0F2FF7FB0B0AA80C4
:1089F400ECF2FF7F0100000080F3FF7FAB0EB2803A
:108A0400E8F3FF7FB0AF0880A8F6FF7F0100000005
:108A1400B8F6FF7FAC3F038028F9FF7F0100000018
:108A240004FBFF7FB0AD0480C4FDFF7F01000000A4
:108A34000090D003A02A00200000000000000000E5
:108A44000000000000000000000000000000000022
:108A54000000000000000000000000000000000012
:108A64000000000000000000000000000000000002
:108A740000000000000000000000000000000000F2
:108A840000000000000000000000000000000000E2
:108A94000000000000000000696202004162020060
:040000032000630175
:00000001FF
